:020000040800F2
:1000000000280020391A0008491900084F19000873
:10001000551900085B19000861190008000000006C
:100020000000000000000000000000006719000848
:1000300073190008000000007F1900088B190008E0
:10004000811A0008811A0008811A0008811A000824
:10005000811A0008811A0008811A0008811A000814
:10006000811A0008811A0008811A0008811A000804
:10007000811A0008811A0008811A0008811A0008F4
:10008000811A0008811A0008811A0008811A0008E4
:10009000811A0008811A0008811A0008811A0008D4
:1000A000811A0008811A0008811A0008811A0008C4
:1000B00099190008811A000800000000811A000840
:1000C000811A00080000000000000000811A0008EA
:1000D00000000000811A0008AD19000800000000AF
:1000E000811A0008811A0008811A00080000000027
:1000F0000000000000000000000000000000000000
:0C01000000000000000000005FF808F1A3
:10010C0010B5054C237833B9044B13B10448AFF345
:10011C0000800123237010BDD000002000000000DF
:10012C00AC4C000808B5034B1BB103490348AFF3B3
:10013C00008008BD00000000D4000020AC4C00087A
:10014C0080B500AF684B1B682C2B3ED02C2B00F3DA
:10015C00C2802A2B02D02B2B6CD0BCE0634B1B68CB
:10016C00012B04D1192001F0B9FA00F00DFF00F0B9
:10017C00DBFC0346012B12D100F0A8FF5C4B1B6883
:10018C0001335B4A13605A4B1B680121184600F07F
:10019C0035FF574B1B689BB2184600F04DFC00F026
:1001AC00E1FC0346012B40F0988000F08FFF4E4B92
:1001BC0022221A60192001F091FA0221002000F08D
:1001CC001DFF002000F074FC87E0484B1B68012BDE
:1001DC0004D1192001F082FA00F0E8FE00F0A4FC32
:1001EC000346012B11D100F071FF424B1B68013308
:1001FC00404A13603F4B1B680221184600F0FEFE7C
:10020C003C4B1B68184600F053FC00F0ABFC03465B
:10021C00012B64D100F05AFF334B21221A601920B4
:10022C0001F05CFA0321002000F0E8FE002000F051
:10023C0021FC54E02D4B1B68012B04D1192001F03B
:10024C004DFA00F0CDFE00F06FFC0346012B11D1EE
:10025C0000F03CFF284B1B680133274A1360264BE8
:10026C001B680321184600F0C9FE234B1B68184677
:10027C0000F000FC00F076FC0346012B31D11E4B44
:10028C001A681C4B1B681A44194B1B689A4203D101
:10029C00154B15221A6024E0174B1A68154B1B6876
:1002AC001A44134B1B689A420ADA114B1A68114B09
:1002BC001B68D31A104A13600B4B15221A6010E0FE
:1002CC000D4B1A680B4B1B681344094A1360064B01
:1002DC0015221A6005E000BF04E000BF02E000BF79
:1002EC0000E000BF00BF80BD000100202001002005
:1002FC00540000205C0000205800002080B500AFA6
:10030C007C4B1B681F3B032B00F2EA8001A252F8C6
:10031C0023F000BF310300085D030008450400080A
:10032C00D303000800F0D2FE022000F047FB714B13
:10033C0020221A60192001F0D1F90121002000F0CF
:10034C005DFE022000F03AFB002000F075FBCEE0D1
:10035C00694B1B68012B04D1192001F0BFF900F087
:10036C0013FE00F0C3FB0346012B0ED100F0AEFED2
:10037C00604B22221A60192001F0B0F902210020F2
:10038C0000F03CFE002000F093FB00F0CDFB034698
:10039C00012B40F0A78000F099FE564B2A221A60E0
:1003AC00192001F09BF9554B01221A60534B1B6825
:1003BC000121184600F022FE504B1B689BB21846D8
:1003CC0000F03AFB8EE04C4B1B68012B04D119203A
:1003DC0001F084F900F0EAFD00F088FB0346012BE4
:1003EC000ED100F073FE434B21221A60192001F04C
:1003FC0075F90321002000F001FE002000F03AFB0B
:10040C0000F092FB0346012B6ED100F05FFE394BDE
:10041C002C221A60192001F061F9394B01221A6063
:10042C00374B1B680221184600F0E8FD344B1B6863
:10043C00184600F03DFB57E02F4B1B68012B04D1F5
:10044C00192001F04BF900F0CBFD00F04FFB0346F7
:10045C00012B2CD100F03AFE2A4B1A68284B1B6852
:10046C001A44264B1B689A4203D1224B15221A6060
:10047C001DE0244B1A68224B1B681A441F4B1B6847
:10048C009A420ADA1D4B1A681D4B1B68D31A1D4A77
:10049C001360184B15221A6009E01A4B1A68184B96
:1004AC001B681344154A1360124B15221A6000F096
:1004BC003BFB0346012B19D100F008FE0D4B2B2200
:1004CC001A60104B01221A600E4B1B680321184650
:1004DC0000F094FD0B4B1B68184600F0CBFA05E0BE
:1004EC0000BF04E000BF02E000BF00E000BF00BF9F
:1004FC0080BD00BF0001002020010020540000201E
:10050C005C0000205800002080B500AF9E4B1B689B
:10051C00153B042B00F2A28101A252F823F000BF7C
:10052C00410500087F05000831060008E3060008B5
:10053C00B907000800F0CAFD934B16221A60934BC2
:10054C001B68184601F08CF8642001F09FF8904B62
:10055C0001221A60642001F0ADF88E4B1B688B4AA7
:10056C0012681146184600F049FD012000F026FAE9
:10057C007DE100F04DFC00F097FC874B1B68012BD4
:10058C0004D100F077FD642001F094F8804B1B68D7
:10059C00012B24D1814B1B689BB21A469200134449
:1005AC005B009AB27D4B5B689BB213449BB21946BD
:1005BC00012000F021FA794B9B689BB21A469200FD
:1005CC0013445B009AB2754BDB689BB213449BB22D
:1005DC001946022000F010FA642001F057F8704B15
:1005EC001B68012B0FD1684B17221A606D4B1B68CF
:1005FC00184601F035F86B4B1B686A4A12681146B5
:10060C00184600F0FBFC00F071FA0346012B40F099
:10061C0027815D4B1F221A6000220021624800F0E6
:10062C0059FF1DE100F0F4FB00F04EFC5A4B1B6827
:10063C00012B04D100F01EFD642001F03BF8544B5B
:10064C001B68012B24D1554B1B689BB21A46920098
:10065C0013445B009AB2514B5B689BB213449BB240
:10066C001946012000F0C8F94C4B9B689BB21A4606
:10067C00920013445B009AB2484BDB689BB2134464
:10068C009BB21946022000F0B7F9642000F0FEFF7F
:10069C00434B1B68012B0FD13B4B18221A603B4B71
:1006AC001B68184600F0DCFF384B1B68394A12688F
:1006BC001146184600F0A2FC00F018FA0346012B74
:1006CC0040F0D080304B1F221A60002200213648A7
:1006DC0000F000FFC6E000F0AFFB00F0D5FB2E4BA6
:1006EC001B68012B04D100F0C5FC642000F0E2FF74
:1006FC00274B1B68012B24D1284B1B689BB21A4635
:10070C00920013445B009AB2244B5B689BB2134477
:10071C009BB21946012000F06FF9204B9B689BB2ED
:10072C001A46920013445B009AB21C4BDB689BB2D6
:10073C0013449BB21946022000F05EF9642000F0CD
:10074C00A5FF174B1B68012B0FD10F4B19221A60F9
:10075C00144B1B68184600F083FF124B1B68114AA0
:10076C0012681146184600F049FC00F0BFF9034628
:10077C00012B79D1044B1F221A60002200210A4858
:10078C0000F0A8FE70E000BF00010020580000201F
:10079C0018010020540000201C01002044000020FF
:1007AC00140100205C0000200903000800F058FB35
:1007BC0000F06AFB2F4B1B68012B04D100F05AFC94
:1007CC00642000F077FF2C4B1B68012B24D12B4BA2
:1007DC001B689BB21A46920013445B009AB2274BDB
:1007EC005B689BB213449BB21946012000F004F9DC
:1007FC00224B9B689BB21A46920013445B009AB240
:10080C001E4BDB689BB213449BB21946022000F0CE
:10081C00F3F8642000F03AFF194B1B68012B0FD141
:10082C00184B16221A60184B1B68184600F018FF5C
:10083C00164B1B68144A12681146184600F0DEFB72
:10084C0000F054F90346012B10D10E4B1F221A60F5
:10085C00002200210E4800F03DFE07E000BF06E03C
:10086C0000BF04E000BF02E000BF00E000BF00BF1B
:10087C0080BD00BF1C010020180100204400002096
:10088C00140100200001002058000020540000201A
:10089C000903000880B400AF074B1A68074B1B68AC
:1008AC001A44074B1B6813445B00064A136000BFD5
:1008BC00BD4680BC704700BF54000020580000208B
:1008CC005C000020EC00002080B400AF064B1B68DD
:1008DC00002B04DD044B1B68013B034A136000BF73
:1008EC00BD4680BC704700BFEC00002080B500AF57
:1008FC002D4B1B68153B042B53D801A252F823F047
:10090C002109000827090008490900086B0900089B
:10091C008D09000800F0DAFB44E000F041F90346D1
:10092C00002B01D0FFF7B6FF204B1B68002B02DD1C
:10093C0000F0DAFA36E000F013FB33E000F030F9A7
:10094C000346002B01D0FFF7A5FF184B1B68002BAB
:10095C0002DD00F0C9FA25E000F002FB22E000F015
:10096C001FF90346002B01D0FFF794FF0F4B1B68B8
:10097C00002B02DD00F0E0FA14E000F0F1FA11E0D7
:10098C0000F00EF90346002B01D0FFF783FF074B55
:10099C001B68002B02DD00F0BBFA03E000F0E0FA6C
:1009AC0000E000BF00BF80BD00010020EC00002073
:1009BC0080B400AF00BFBD4680BC704780B58EB020
:1009CC0000AF0346FB71FA7907F108030849184692
:1009DC0003F0E2FD0346FB86FA8E07F108010A23B9
:1009EC00044802F00DFF00BF3837BD4680BD00BF84
:1009FC00C44C0008C001002080B588B000AF03468D
:100A0C000A46FB711346BB80FA79BB8807F10800D4
:100A1C00074903F0C1FD0346FB83FA8B07F108017C
:100A2C000A23044802F0ECFE00BF2037BD4680BD0F
:100A3C00D04C0008C001002080B588B000AF034640
:100A4C00FB80FA8807F108030849184603F0A4FD57
:100A5C000346FB83FA8B07F108010A23044802F0D2
:100A6C00CFFE00BF2037BD4680BD00BFE04C000864
:100A7C00C001002080B588B000AF0346FB80FA8827
:100A8C0007F108030849184603F086FD0346FB836B
:100A9C00FA8B07F108010A23044802F0B1FE00BFEB
:100AAC002037BD4680BD00BFEC4C0008C0010020C3
:100ABC0080B588B000AF0346FB80FA8807F10803C5
:100ACC000849184603F068FD0346FB83FA8B07F1CF
:100ADC0008010A23044802F093FE00BF2037BD46EC
:100AEC0080BD00BFF84C0008C001002080B400AFEE
:100AFC00064B1B68012B04D1044B00221A60012306
:100B0C0000E000231846BD4680BC7047F000002072
:100B1C0080B400AF034B01221A6000BFBD4680BCFD
:100B2C00704700BFF000002080B400AF064B1B687C
:100B3C00012B04D1044B00221A60012300E0002396
:100B4C001846BD4680BC7047F400002080B400AF4E
:100B5C00034B01221A6000BFBD4680BC704700BF2A
:100B6C00F400002080B400AF064B1B68012B04D1AD
:100B7C00044B00221A60012300E000231846BD46F6
:100B8C0080BC7047F800002080B400AF034B0122FA
:100B9C001A6000BFBD4680BC704700BFF800002043
:100BAC0080B400AF064B1B68012B04D1044B002210
:100BBC001A60012300E000231846BD4680BC704734
:100BCC00FC00002080B400AF034B01221A6000BF70
:100BDC00BD4680BC704700BFFC00002080B500AF54
:100BEC00784B1B68784A1360784B1B68754A136006
:100BFC000221774801F0DCFA03461A46734B1A605F
:100C0C00714B1A686F4B1B689A4225D16D4B1A6851
:100C1C006E4B1B689A421FD16E4B1A686B4B1B684C
:100C2C009A420DD0694B1B686A4A1360674B1B686C
:100C3C00002B11D1FFF76CFF674BC8221A600BE039
:100C4C00654B1B68013B644A1360634B1B68002BAC
:100C5C0002D1604B01221A60604B1B68604A136022
:100C6C00604B1B685D4A13602021594801F0A0FAC3
:100C7C0003461A465B4B1A60594B1A68574B1B6854
:100C8C009A4225D1554B1A68564B1B689A421FD174
:100C9C00554B1A68534B1B689A420DD0514B1B682D
:100CAC00514A13604F4B1B68002B11D1FFF74EFFBD
:100CBC00494BC8221A600BE0474B1B68013B464A64
:100CCC001360454B1B68002B02D1474B01221A6065
:100CDC00464B1B68464A1360464B1B68434A1360DD
:100CEC000121454801F064FA03461A46414B1A604B
:100CFC003F4B1A683D4B1B689A4225D13B4B1A68F7
:100D0C003C4B1B689A421FD13A4B1A683B4B1B68F1
:100D1C009A420DD0374B1B68384A1360354B1B6811
:100D2C00002B11D1FFF730FF2B4BC8221A600BE0C0
:100D3C00294B1B68013B284A1360274B1B68002B6F
:100D4C0002D12E4B01221A602D4B1B682D4A1360C9
:100D5C002D4B1B682A4A136001211D4801F028FA0B
:100D6C0003461A46284B1A60264B1A68244B1B68FC
:100D7C009A4225D1224B1A68234B1B689A421FD1E9
:100D8C00214B1A68214B1B689A420DD01E4B1B68D5
:100D9C001E4A13601C4B1B68002B11D1FFF712FF6E
:100DAC000D4BC8221A600BE00B4B1B68013B0A4A27
:100DBC001360094B1B68002B02D1144B01221A60E3
:100DCC0000BF80BD040000200000002008000020AF
:100DDC00000801400C0000204000002014000020FE
:100DEC0010000020180000201C000020240000200F
:100DFC002000002028000020000C01402C000020C6
:100E0C003400002030000020380000203C0000207E
:100E1C0080B500AF00224FF48061054801F0DFF986
:100E2C0001220821034801F0DAF900BF80BD00BFA0
:100E3C0000080140000C014080B500AF01224FF4C6
:100E4C008061054801F0CBF900220821034801F02C
:100E5C00C6F900BF80BD00BF00080140000C014076
:100E6C0080B500AF00224FF48061054801F0B7F95E
:100E7C0000220821034801F0B2F900BF80BD00BF79
:100E8C0000080140000C014080B500AF0022102189
:100E9C00044801F0A4F901222021024801F09FF935
:100EAC0000BF80BD000C014080B500AF01221021B5
:100EBC00044801F094F900222021024801F08FF936
:100ECC0000BF80BD000C014080B500AF0022102196
:100EDC00044801F084F900222021024801F07FF936
:100EEC0000BF80BD000C014080B500AF00224FF464
:100EFC008061054801F073F901224FF480710348B9
:100F0C0001F06DF900BF80BD000C014000080140EC
:100F1C0080B500AF00224FF48061054801F05FF905
:100F2C0000224FF48071034801F059F900BF80BDD5
:100F3C00000C01400008014080B500AF01224FF4C5
:100F4C008061054801F04BF900224FF48071034891
:100F5C0001F045F900BF80BD000C014000080140C4
:100F6C0080B500AF01224FF48061054801F037F9DC
:100F7C0001224FF48071034801F031F900BF80BDAC
:100F8C00000C01400008014080B500AF4FF48061B7
:100F9C00044801F03CF91021034801F038F900BF76
:100FAC0080BD00BF00080140000C014080B500AFBF
:100FBC004FF48061084801F02AF90821074801F034
:100FCC0026F91021054801F022F92021034801F0EF
:100FDC001EF900BF80BD00BF00080140000C01409D
:100FEC0080B500AF0821044801F011F92021024816
:100FFC0001F00DF900BF80BD000C014080B483B03E
:10100C0000AF786039607B68184A82FB031292103B
:10101C00DB17D31A164A13607968144B83FB012330
:10102C009A10CB17D21A13469B0013445B00CA1AB2
:10103C000F4B5A603B680D4A82FB03129210DB1770
:10104C00D31A0B4A93603968084B83FB01239A101F
:10105C00CB17D21A13469B0013445B00CA1A044BDD
:10106C00DA6000BF0C37BD4680BC704767666666A9
:10107C004400002080B400AF134B5B68002B08DCED
:10108C00114B1B68013B104A13600F4B09225A602D
:10109C0004E00D4B5B68013B0B4A53600A4BDB6869
:1010AC00002B08DC084B9B68013B074A9360064BFE
:1010BC000922DA6004E0044BDB68013B024AD3608E
:1010CC0000BFBD4680BC70474400002080B500AF17
:1010DC0001224FF487610F4801F081F801224FF48F
:1010EC00A0610D4801F07BF80C4B00221A600C4BF0
:1010FC0000221A600B4B00221A600B4B00221A6064
:10110C00FFF7F4FCFFF710FDFFF72CFDFFF748FD90
:10111C0000BF80BD000C01400008014014010020FC
:10112C00180100201C0100202001002080B500AF18
:10113C0000F0A2FC00F036F800F042F900F074F870
:10114C0000F0BEF800F012F9114801F0D7FCFFF7DF
:10115C002FFC104B15221A600A2200210E4800F0B9
:10116C00B9F90A2200210D4800F0B4F94FF47A7253
:10117C0000210B4800F0AEF9FFF7C6F9FFF7BEF8F7
:10118C00FEF7DEFFFFF7B2FB00F036FAF4E700BF24
:10119C00780100200001002011170008E90B00085D
:1011AC00D508000880B590B000AF07F118032822CD
:1011BC000021184603F032F93B1D00221A605A60D8
:1011CC009A60DA601A610223BB610123BB621023AF
:1011DC00FB6202237B630023BB634FF46013FB634E
:1011EC0007F11803184601F02BF80346002B01D029
:1011FC0000F06AF90F237B600223BB600023FB60C5
:10120C004FF4C0633B614FF4C0637B613B1D022113
:10121C00184601F095FA0346002B01D000F054F962
:10122C0000BF4037BD4680BD80B586B000AF07F12A
:10123C00080300221A605A609A60DA603B4600226A
:10124C001A605A601D4B4FF080421A601B4B3F22B4
:10125C005A601A4B00229A60184B40F2E732DA605F
:10126C00164B00221A61154B00229A61134801F0AB
:10127C00F5FB0346002B01D000F026F94FF4805308
:10128C00BB6007F1080319460C4801F09DFE0346AC
:10129C00002B01D000F018F900233B6000237B6089
:1012AC003B461946054802F0F1F90346002B01D0E4
:1012BC0000F00AF900BF1837BD4680BD7801002048
:1012CC0080B58AB000AF07F1200300221A605A6083
:1012DC003B1D00221A605A609A60DA601A615A61EA
:1012EC009A61204B204A1A601E4B00225A601D4BFB
:1012FC0000229A601B4B4FF6FF72DA60194B0022EA
:10130C001A61184B00229A61164801F043FC0346FF
:10131C00002B01D000F0D8F800233B6200237B6245
:10132C0007F1200319460F4802F0B0F90346002BD1
:10133C0001D000F0C9F860237B600023BB60002360
:10134C00FB6000237B613B1D00221946054801F020
:10135C0079FD0346002B01D000F0B6F800BF28370A
:10136C00BD4680BD300100200004004080B500AFB8
:10137C00114B124A1A60104B4FF416525A600E4B16
:10138C0000229A600C4B0022DA600B4B00221A618F
:10139C00094B0C225A61084B00229A61064B002221
:1013AC00DA61054802F0DCF90346002B01D000F0AD
:1013BC008BF800BF80BD00BFC0010020004400407E
:1013CC0080B588B000AF07F1100300221A605A6094
:1013DC009A60DA60344B9B69334A43F02003936183
:1013EC00314B9B6903F02003FB60FB682E4B9B6920
:1013FC002D4A43F0040393612B4B9B6903F00403C8
:10140C00BB60BB68284B9B69274A43F00803936178
:10141C00254B9B6903F008037B607B6800224FF42B
:10142C008761224800F0DBFE00224FF4A0612048C7
:10143C0000F0D5FE23233B6100237B610123BB61BC
:10144C0007F1100319461A4800F038FD01233B61DF
:10145C0000237B610123BB6107F11003194613487C
:10146C0000F02CFD4FF487633B6101237B6100236B
:10147C00BB610223FB6107F1100319460B4800F016
:10148C001DFD4FF4A0633B6101237B610023BB6115
:10149C000223FB6107F110031946054800F00EFD0D
:1014AC0000BF2037BD4680BD00100240000C01403B
:1014BC000008014080B582B000AF786000F074F88D
:1014CC0000BF0837BD4680BD80B400AF72B600BF08
:1014DC00FEE7000080B586B000AF78600B467B80DD
:1014EC0013463B800C2002F089FF0346FB60FB682F
:1014FC007A681A607B882A4A82FB03129210DB17E7
:10150C00D31A9AB2FB689A80FB683A88DA80FB6837
:10151C0000229A60234B1B68002B03D1214AFB68E5
:10152C00136039E01F4B1B687B611E4B1B683B61D2
:10153C000CE0FB689A883B699B88D31A9AB2FB68CB
:10154C009A803B697B613B699B683B613B69002BE3
:10155C0005D0FB689A883B699B889A42E9D27A69E4
:10156C003B699A4206D07B69FA689A60FB683A69D3
:10157C009A6005E0FB683A699A600A4AFB68136056
:10158C003B69002B07D03B699A88FB689B88D31A70
:10159C009AB23B699A8000BF1837BD4680BD00BF28
:1015AC00676666660802002080B400AF094B1B68B2
:1015BC00002B0BD0074B1B689B88002B07D0054BCF
:1015CC001B689A88013A92B29A8000E000BFBD462F
:1015DC0080BC70470802002080B582B000AF7860F4
:1015EC007B68002B03D0786802F010FF00E000BF8E
:1015FC000837BD4680BD000080B582B000AF174BE8
:10160C001B68002B24D0154B1B689B88002B21D109
:10161C00124B1B681B689847104B1B687B600F4B69
:10162C001B689B680D4A13607B6800229A607B687C
:10163C00DB88002B08D07B6818687B68D9887B68AE
:10164C00DB881A46FFF746FF7868FFF7C5FF02E014
:10165C0000BF00E000BF0837BD4680BD0802002077
:10166C0080B483B000AF78607B68642202FB03F324
:10167C00044A1360044B00221A6000BF0C37BD46AD
:10168C0080BC7047040100201401002080B483B09A
:10169C0000AF7860054A7B681360054B00221A6026
:1016AC0000BF0C37BD4680BC704700BF080100204E
:1016BC001801002080B483B000AF7860054A7B68C5
:1016CC001360054B00221A6000BF0C37BD4680BC6E
:1016DC00704700BF0C0100201C01002080B483B0B7
:1016EC0000AF7860054A7B681360054B00221A60D6
:1016FC0000BF0C37BD4680BC704700BF10010020F6
:10170C002001002080B400AF214B1B68002B0BDDA7
:10171C001F4B1B68013B1E4A13601D4B1B68002BA3
:10172C0002DC1C4B01221A601B4B1B68002B0BDDCF
:10173C00194B1B68013B184A1360174B1B68002B95
:10174C0002DC164B01221A60154B1B68002B0BDDBB
:10175C00134B1B68013B124A1360114B1B68002B87
:10176C0002DC104B01221A600F4B1B68002B0BDDA7
:10177C000D4B1B68013B0C4A13600B4B1B68002B79
:10178C0002DC0A4B01221A6000BFBD4680BC7047C8
:10179C000401002014010020080100201801002081
:1017AC000C0100201C010020100100202001002051
:1017BC0080B485B000AF154B9B69144A43F001030C
:1017CC009361124B9B6903F00103BB60BB680F4B29
:1017DC00DB690E4A43F08053D3610C4BDB6903F099
:1017EC0080537B607B680A4B5B68FB60FB6823F073
:1017FC00E063FB60FB6843F00073FB60044AFB682A
:10180C00536000BF1437BD4680BC704700100240C7
:10181C000000014080B584B000AF78607B681B6825
:10182C00B3F1804F13D10C4BDB690B4A43F001032E
:10183C00D361094BDB6903F00103FB60FB680022F9
:10184C000A211C2000F051FA1C2000F06AFA00BF9B
:10185C001037BD4680BD00BF0010024080B485B07B
:10186C0000AF78607B681B68094A93420BD1094B27
:10187C00DB69084A43F00203D361064BDB6903F0D2
:10188C000203FB60FB6800BF1437BD4680BC704789
:10189C00000400400010024080B588B000AF7860B2
:1018AC0007F1100300221A605A609A60DA607B68B4
:1018BC001B681F4A934237D11E4BDB691D4A43F408
:1018CC000033D3611B4BDB6903F40033FB60FB6813
:1018DC00184B9B69174A43F004039361154B9B69A2
:1018EC0003F00403BB60BB6804233B6102237B61F0
:1018FC000323FB6107F1100319460F4800F0DEFAD1
:10190C0008233B6100237B610023BB6107F11003BB
:10191C001946094800F0D2FA00220021262000F0D6
:10192C00E4F9262000F0FDF900BF2037BD4680BD4C
:10193C0000440040001002400008014080B400AF99
:10194C00FEE780B400AFFEE780B400AFFEE780B4E2
:10195C0000AFFEE780B400AFFEE780B400AF00BF7D
:10196C00BD4680BC704780B400AF00BFBD4680BC94
:10197C00704780B400AF00BFBD4680BC704780B5D7
:10198C0000AF00F0BFF800BF80BD000080B500AF15
:10199C00024801F04EF900BF80BD00BF7801002065
:1019AC0080B500AF024801F0AFFF00BF80BD00BFA3
:1019BC00C001002080B586B000AF7860144A154B8A
:1019CC00D31A7B617B693B61134B1B68002B02D1E3
:1019DC00114B124A1A60104B1A687B6813443A690F
:1019EC009A4207D202F0E0FC03460C221A604FF038
:1019FC00FF3309E0084B1B68FB60074B1A687B68D8
:101A0C001344054A1360FB6818461837BD4680BD61
:101A1C0000280020000400002401002020020020E7
:101A2C0080B400AF00BFBD4680BC7047FFF7F8FF25
:101A3C000B480C490C4A002302E0D458C450043320
:101A4C00C4188C42F9D3094A094C002301E01360F5
:101A5C000432A242FBD302F0ADFCFFF767FB7047E8
:101A6C0000000020D0000020704D0008D0000020A5
:101A7C0020020020FEE7000080B500AF084B1B6879
:101A8C00074A43F010031360032000F023F90F20E2
:101A9C0000F008F8FFF78CFE0023184680BD00BF4D
:101AAC000020024080B582B000AF7860124B1A68FB
:101ABC00124B1B7819464FF47A73B3FBF1F3B2FB5C
:101ACC00F3F3184600F03BF90346002B01D0012339
:101ADC000EE07B680F2B0AD8002279684FF0FF309C
:101AEC0000F003F9064A7B681360002300E0012331
:101AFC0018460837BD4680BD6000002068000020F5
:101B0C006400002080B400AF054B1B781A46054BCF
:101B1C001B681344034A136000BFBD4680BC70476A
:101B2C00680000200C02002080B400AF024B1B6840
:101B3C001846BD4680BC70470C02002080B485B0AE
:101B4C0000AF78607B6803F00703FB600C4BDB682D
:101B5C00BB60BA684FF6FF031340BB60FB681A0208
:101B6C00BB68134343F0BF6343F40033BB60044AC8
:101B7C00BB68D36000BF1437BD4680BC704700BF44
:101B8C0000ED00E080B400AF044BDB681B0A03F0EF
:101B9C0007031846BD4680BC704700BF00ED00E04F
:101BAC0080B483B000AF0346FB7197F90730002B6C
:101BBC000BDBFB7903F01F02064997F907305B0931
:101BCC00012000FA02F241F8232000BF0C37BD4679
:101BDC0080BC704700E100E080B483B000AF0346E6
:101BEC003960FB7197F90730002B0ADB3B68DAB2DE
:101BFC000C4997F907301201D2B20B4483F8002339
:101C0C000AE03B68DAB20849FB7903F00F03043BA6
:101C1C001201D2B20B441A7600BF0C37BD4680BC01
:101C2C00704700BF00E100E000ED00E080B489B037
:101C3C0000AFF860B9607A60FB6803F00703FB61E2
:101C4C00FB69C3F10703042B28BF0423BB61FB69A9
:101C5C000433062B02D9FB69033B00E000237B61B4
:101C6C004FF0FF32BB6902FA03F3DA43BB681A4048
:101C7C007B699A404FF0FF317B6901FA03F3D9433A
:101C8C007B680B40134318462437BD4680BC704715
:101C9C0080B582B000AF78607B68013BB3F1807F88
:101CAC0001D301230FE00A4A7B68013B53600F21EB
:101CBC004FF0FF30FFF790FF054B00229A60044B6A
:101CCC0007221A60002318460837BD4680BD00BFA6
:101CDC0010E000E080B582B000AF78607868FFF764
:101CEC002DFF00BF0837BD4680BD80B586B000AF64
:101CFC000346B9607A60FB7300237B61FFF742FFF8
:101D0C0078617A68B9687869FFF790FF024697F9AD
:101D1C000F3011461846FFF75FFF00BF1837BD465E
:101D2C0080BD80B582B000AF0346FB7197F90730D8
:101D3C001846FFF735FF00BF0837BD4680BD80B59C
:101D4C0082B000AF78607868FFF7A2FF03461846B0
:101D5C000837BD4680BD80B485B000AF78600023E5
:101D6C00FB737B6893F82130DBB2022B08D07B68C5
:101D7C0004229A637B68002283F82020012320E050
:101D8C007B681B681A687B681B6822F00E021A605D
:101D9C007B681B681A687B681B6822F001021A605A
:101DAC007B681A6C7B68DB6B012101FA02F25A60CA
:101DBC007B68012283F821207B68002283F8202095
:101DCC00FB7B18461437BD4680BC704780B584B089
:101DDC0000AF78600023FB737B6893F82130DBB293
:101DEC00022B05D07B6804229A630123FB7351E01C
:101DFC007B681B681A687B681B6822F00E021A60ED
:101E0C007B681B681A687B681B6822F001021A60E9
:101E1C007B681B68224A934229D07B681B68214A45
:101E2C00934222D07B681B681F4A93421AD07B686E
:101E3C001B681E4A934212D07B681B681C4A934253
:101E4C000AD07B681B681B4A934202D14FF4801363
:101E5C000EE04FF080730BE04FF4803308E04FF44A
:101E6C00805305E04FF4807302E0102300E001235F
:101E7C00114A53607B68012283F821207B68002281
:101E8C0083F820207B685B6B002B03D07B685B6B3B
:101E9C0078689847FB7B18461037BD4680BD00BF5D
:101EAC00080002401C000240300002404400024086
:101EBC00580002406C0002400000024080B48BB01D
:101ECC0000AF7860396000237B6200233B6248E1FD
:101EDC0001227B6A02FA03F3FB613B681B68FA6917
:101EEC001340BB61BA69FB699A4240F037813B6889
:101EFC005B68A34A93425ED0A14A934275D8A14A2B
:101F0C00934258D09F4A93426FD89F4A934252D0E3
:101F1C009D4A934269D89D4A93424CD09B4A934226
:101F2C0063D89B4A934246D0994A93425DD8122B70
:101F3C002AD8122B59D801A252F823F0C31F00083B
:101F4C009D1F0008AF1F0008F11F0008F71F0008B5
:101F5C00F71F0008F71F0008F71F0008F71F0008FD
:101F6C00F71F0008F71F0008F71F0008F71F0008ED
:101F7C00F71F0008F71F0008F71F0008F71F0008DD
:101F8C00A51F0008B91F0008824A934213D02CE009
:101F9C003B68DB683B6229E03B68DB6804333B62EF
:101FAC0024E03B68DB6808333B621FE03B68DB687E
:101FBC000C333B621AE03B689B68002B02D1042374
:101FCC003B6213E03B689B68012B05D108233B6205
:101FDC007B68FA691A6109E008233B627B68FA693D
:101FEC005A6103E000233B6200E000BFBB69FF2B9A
:101FFC0001D87B6801E07B6804337B61BB69FF2BF4
:10200C0002D87B6A9B0002E07B6A083B9B003B6129
:10201C007B691A680F213B6901FA03F3DB431A4011
:10202C00396A3B6901FA03F31A437B691A603B680E
:10203C005B6803F08053002B00F09080564B9B693B
:10204C00554A43F001039361534B9B6903F0010321
:10205C00BB60BB68514A7B6A9B08023352F8233041
:10206C00FB607B6A03F003039B000F2202FA03F36D
:10207C00DB43FA681340FB607B68494A93420DD0FE
:10208C007B68484A934207D07B68474A934201D108
:10209C00022304E0032302E0012300E000237A6A18
:1020AC0002F0030292009340FA681343FB603B4931
:1020BC007B6A9B080233FA6841F823203B685B6813
:1020CC0003F48013002B06D0384B9A683749BB6950
:1020DC0013438B6006E0354B9A68BB69DB4333498D
:1020EC0013408B603B685B6803F40013002B06D035
:1020FC002E4BDA682D49BB691343CB6006E02B4BA2
:10210C00DA68BB69DB4329491340CB603B685B68E9
:10211C0003F40033002B06D0244B5A682349BB69C7
:10212C0013434B6006E0214B5A68BB69DB431F49E4
:10213C0013404B603B685B6803F48033002B06D084
:10214C001A4B1A681949BB6913430B6006E0174B0D
:10215C001A68BB69DB43154913400B607B6A01337A
:10216C007B623B681A687B6A22FA03F3002B7FF4CC
:10217C00AFAE00BF00BF2C37BD4680BC704700BF60
:10218C00000032100000311000002210000021105D
:10219C00000012100000111000100240000001405D
:1021AC0000080140000C01400010014000040140F7
:1021BC0080B485B000AF78600B467B807B689A68F2
:1021CC007B881340002B02D00123FB7301E000231A
:1021DC00FB73FB7B18461437BD4680BC704780B43C
:1021EC0083B000AF78600B467B8013467B707B78A6
:1021FC00002B03D07A887B681A6103E07B881A0471
:10220C007B681A6100BF0C37BD4680BC704780B438
:10221C0085B000AF78600B467B807B68DB68FB6029
:10222C007A88FB6813401A04FB68D9437B880B40FF
:10223C001A437B681A6100BF1437BD4680BC7047D7
:10224C0080B586B000AF78607B68002B01D101238C
:10225C006CE27B681B6803F00103002B00F08780A5
:10226C00924B5B6803F00C03042B0CD08F4B5B6818
:10227C0003F00C03082B12D18C4B5B6803F48033F6
:10228C00B3F5803F0BD1894B1B6803F40033002B53
:10229C006CD07B685B68002B68D1012346E27B68BD
:1022AC005B68B3F5803F06D1804B1B687F4A43F4D3
:1022BC00803313602EE07B685B68002B0CD17B4B6A
:1022CC001B687A4A23F480331360784B1B68774A77
:1022DC0023F4802313601DE07B685B68B3F5A02FAB
:1022EC000CD1724B1B68714A43F4802313606F4B03
:1022FC001B686E4A43F4803313600BE06B4B1B6816
:10230C006A4A23F480331360684B1B68674A23F4D2
:10231C00802313607B685B68002B13D0FFF704FCF1
:10232C00386108E0FFF700FC02463B69D31A642BC6
:10233C0001D90323FAE15D4B1B6803F40033002B36
:10234C00F0D014E0FFF7F0FB386108E0FFF7ECFB8E
:10235C0002463B69D31A642B01D90323E6E1534BA4
:10236C001B6803F40033002BF0D100E000BF7B6846
:10237C001B6803F00203002B63D04C4B5B6803F02B
:10238C000C03002B0BD0494B5B6803F00C03082BA0
:10239C001CD1464B5B6803F48033002B16D1434BA6
:1023AC001B6803F00203002B05D07B681B69012B13
:1023BC0001D00123BAE13D4B1B6823F0F8027B6886
:1023CC005B69DB00394913430B603AE07B681B699E
:1023DC00002B20D0364B01221A60FFF7A5FB386189
:1023EC0008E0FFF7A1FB02463B69D31A022B01D987
:1023FC0003239BE12D4B1B6803F00203002BF0D051
:10240C002A4B1B6823F0F8027B685B69DB002749C9
:10241C0013430B6015E0264B00221A60FFF784FB78
:10242C00386108E0FFF780FB02463B69D31A022BA8
:10243C0001D903237AE11D4B1B6803F00203002B27
:10244C00F0D17B681B6803F00803002B3AD07B6843
:10245C009B69002B19D0174B01221A60FFF764FB04
:10246C00386108E0FFF760FB02463B69D31A022B88
:10247C0001D903235AE10D4B5B6A03F00203002BD5
:10248C00F0D0012000F0CCFA1CE00A4B00221A60BC
:10249C00FFF74AFB38610FE0FFF746FB02463B694A
:1024AC00D31A022B08D9032340E100BF00100240CD
:1024BC0000004242800442429E4B5B6A03F00203DE
:1024CC00002BE9D17B681B6803F00403002B00F0A0
:1024DC00A6800023FB75974BDB6903F08053002B20
:1024EC000DD1944BDB69934A43F08053D361914BEC
:1024FC00DB6903F08053BB60BB680123FB758E4B1B
:10250C001B6803F48073002B18D18B4B1B688A4A11
:10251C0043F480731360FFF707FB386108E0FFF7A3
:10252C0003FB02463B69D31A642B01D90323FDE05C
:10253C00814B1B6803F48073002BF0D07B68DB6845
:10254C00012B06D17B4B1B6A7A4A43F001031362C1
:10255C002DE07B68DB68002B0CD1764B1B6A754A2F
:10256C0023F001031362734B1B6A724A23F00403BA
:10257C0013621CE07B68DB68052B0CD16D4B1B6A6E
:10258C006C4A43F0040313626A4B1B6A694A43F0BA
:10259C00010313620BE0674B1B6A664A23F00103CD
:1025AC001362644B1B6A634A23F0040313627B6857
:1025BC00DB68002B15D0FFF7B7FA38610AE0FFF79C
:1025CC00B3FA02463B69D31A41F28832934201D9DD
:1025DC000323ABE0574B1B6A03F00203002BEED036
:1025EC0014E0FFF7A1FA38610AE0FFF79DFA024602
:1025FC003B69D31A41F28832934201D9032395E007
:10260C004C4B1B6A03F00203002BEED1FB7D012B1C
:10261C0005D1484BDB69474A23F08053D3617B6873
:10262C00DB69002B00F08180424B5B6803F00C03EC
:10263C00082B61D07B68DB69022B46D13F4B002213
:10264C001A60FFF771FA386108E0FFF76DFA02467D
:10265C003B69D31A022B01D9032367E0354B1B6866
:10266C0003F00073002BF0D17B681B6AB3F5803F3D
:10267C0008D1304B5B6823F400327B689B682D4992
:10268C0013434B602B4B5B6823F474127B68196A01
:10269C007B685B6A0B43274913434B60274B012232
:1026AC001A60FFF741FA386108E0FFF73DFA02467D
:1026BC003B69D31A022B01D9032337E01D4B1B684E
:1026CC0003F00073002BF0D02FE01C4B00221A609B
:1026DC00FFF72AFA386108E0FFF726FA02463B6951
:1026EC00D31A022B01D9032320E0124B1B6803F0F1
:1026FC000073002BF0D118E07B68DB69012B01D152
:10270C00012313E00B4B5B68FB60FB6803F4803226
:10271C007B681B6A9A4206D1FB6803F470127B68D3
:10272C005B6A9A4201D0012300E000231846183757
:10273C00BD4680BD00100240007000406000424267
:10274C0080B584B000AF786039607B68002B01D114
:10275C000123D0E06A4B1B6803F007033A689A42E6
:10276C0010D9674B1B6823F0070265493B6813437C
:10277C000B60634B1B6803F007033A689A4201D065
:10278C000123B8E07B681B6803F00203002B20D008
:10279C007B681B6803F00403002B05D0594B5B6866
:1027AC00584A43F4E06353607B681B6803F00803EA
:1027BC00002B05D0534B5B68524A43F46053536073
:1027CC00504B5B6823F0F0027B689B684D491343C8
:1027DC004B607B681B6803F00103002B40D07B68C7
:1027EC005B68012B07D1474B1B6803F40033002BAC
:1027FC0015D101237FE07B685B68022B07D1414B2D
:10280C001B6803F00073002B09D1012373E03D4BCF
:10281C001B6803F00203002B01D101236BE0394B41
:10282C005B6823F003027B685B68364913434B609B
:10283C00FFF77AF9F8600AE0FFF776F90246FB68D1
:10284C00D31A41F28832934201D9032353E02D4B22
:10285C005B6803F00C027B685B689B009A42EBD1CF
:10286C00274B1B6803F007033A689A4210D2244B9B
:10287C001B6823F0070222493B6813430B60204B73
:10288C001B6803F007033A689A4201D0012332E037
:10289C007B681B6803F00403002B08D0194B5B68A2
:1028AC0023F4E0627B68DB68164913434B607B685A
:1028BC001B6803F00803002B09D0124B5B6823F450
:1028CC0060527B681B69DB000E4913434B6000F0C0
:1028DC0021F802460B4B5B681B0903F00F030A49F6
:1028EC00CB5C22FA03F3094A1360094B1B681846A8
:1028FC00FFF7D8F8002318461037BD4680BD00BF3F
:10290C000020024000100240084D0008600000202A
:10291C006400002080B487B000AF0023FB6000236C
:10292C00BB6000237B6100237B6000233B611E4B5B
:10293C005B68FB60FB6803F00C03042B02D0082BD4
:10294C0003D027E0194B3B6127E0FB689B0C03F09D
:10295C000F03174AD35C7B60FB6803F48033002BB6
:10296C0010D0114B5B685B0C03F00103114AD35C74
:10297C00BB607B680D4A02FB03F2BB68B2FBF3F34E
:10298C007B6104E07B680C4A02FB03F37B617B698F
:10299C003B6102E0054B3B6100BF3B6918461C37AD
:1029AC00BD4680BC704700BF0010024000127A0088
:1029BC00204D0008304D000800093D0080B400AFE8
:1029CC00024B1B681846BD4680BC70476000002057
:1029DC0080B500AFFFF7F2FF0246054B5B681B0AA0
:1029EC0003F007030349CB5C22FA03F3184680BDBE
:1029FC0000100240184D000880B500AFFFF7DEFF55
:102A0C000246054B5B68DB0A03F007030349CB5C0A
:102A1C0022FA03F3184680BD00100240184D00083E
:102A2C0080B485B000AF78600A4B1B680A4AA2FBE1
:102A3C0003235B0A7A6802FB03F3FB6000BFFB68AD
:102A4C005A1EFA60002BF9D100BF00BF1437BD46E7
:102A5C0080BC704760000020D34D621080B582B0FE
:102A6C0000AF78607B68002B01D1012341E07B68CB
:102A7C0093F83D30DBB2002B06D17B68002283F843
:102A8C003C207868FEF7C6FE7B68022283F83D2066
:102A9C007B681A687B6804331946104600F080FB8B
:102AAC007B68012283F846207B68012283F83E2054
:102ABC007B68012283F83F207B68012283F8402049
:102ACC007B68012283F841207B68012283F8422035
:102ADC007B68012283F843207B68012283F8442021
:102AEC007B68012283F845207B68012283F83D2016
:102AFC00002318460837BD4680BD000080B485B061
:102B0C0000AF78607B6893F83D30DBB2012B01D0CD
:102B1C00012335E07B68022283F83D207B681B682B
:102B2C00DA687B681B6842F00102DA607B681B681C
:102B3C00164A934209D07B681B68B3F1804F04D0CE
:102B4C007B681B68124A934211D17B681B689B6897
:102B5C0003F00703FB60FB68062B10D07B681B6837
:102B6C001A687B681B6842F001021A6007E07B68F8
:102B7C001B681A687B681B6842F001021A6000230C
:102B8C0018461437BD4680BC704700BF002C01406E
:102B9C000004004080B582B000AF78607B68002BE9
:102BAC0001D1012341E07B6893F83D30DBB2002B6F
:102BBC0006D17B68002283F83C207868FEF74EFE35
:102BCC007B68022283F83D207B681A687B6804339B
:102BDC001946104600F0E4FA7B68012283F846207F
:102BEC007B68012283F83E207B68012283F83F201A
:102BFC007B68012283F840207B68012283F8412006
:102C0C007B68012283F842207B68012283F84320F1
:102C1C007B68012283F844207B68012283F84520DD
:102C2C007B68012283F83D20002318460837BD46F7
:102C3C0080BD80B582B000AF78607B681B681B6973
:102C4C0003F00203022B22D17B681B68DB6803F0C4
:102C5C000203022B1BD17B681B686FF002021A6106
:102C6C007B6801221A777B681B689B6903F003035E
:102C7C00002B03D0786800F077FA05E0786800F054
:102C8C006AFA786800F079FA7B6800221A777B6818
:102C9C001B681B6903F00403042B22D17B681B689F
:102CAC00DB6803F00403042B1BD17B681B686FF0FB
:102CBC0004021A617B6802221A777B681B689B6985
:102CCC0003F44073002B03D0786800F04DFA05E054
:102CDC00786800F040FA786800F04FFA7B680022C0
:102CEC001A777B681B681B6903F00803082B22D139
:102CFC007B681B68DB6803F00803082B1BD17B681F
:102D0C001B686FF008021A617B6804221A777B68D3
:102D1C001B68DB6903F00303002B03D0786800F019
:102D2C0023FA05E0786800F016FA786800F025FAC6
:102D3C007B6800221A777B681B681B6903F0100301
:102D4C00102B22D17B681B68DB6803F01003102B5F
:102D5C001BD17B681B686FF010021A617B6808221C
:102D6C001A777B681B68DB6903F44073002B03D074
:102D7C00786800F0F9F905E0786800F0ECF978680B
:102D8C0000F0FBF97B6800221A777B681B681B69D3
:102D9C0003F00103012B0ED17B681B68DB6803F089
:102DAC000103012B07D17B681B686FF001021A61CC
:102DBC007868FEF77FFB7B681B681B6903F0800358
:102DCC00802B0ED17B681B68DB6803F08003802BA3
:102DDC0007D17B681B686FF080021A61786800F07D
:102DEC00B6FC7B681B681B6903F04003402B0ED1BB
:102DFC007B681B68DB6803F04003402B07D17B68C2
:102E0C001B686FF040021A61786800F0BFF97B68AC
:102E1C001B681B6903F02003202B0ED17B681B68F9
:102E2C00DB6803F02003202B07D17B681B686FF055
:102E3C0020021A61786800F081FC00BF0837BD469B
:102E4C0080BD000080B586B000AFF860B9607A60D4
:102E5C000023FB75FB6893F83C30012B01D1022356
:102E6C00AEE0FB68012283F83C207B680C2B00F25F
:102E7C009F8001A252F823F0B92E0008BD2F000844
:102E8C00BD2F0008BD2F0008F92E0008BD2F00082B
:102E9C00BD2F0008BD2F00083B2F0008BD2F0008D8
:102EAC00BD2F0008BD2F00087B2F0008FB681B6896
:102EBC00B968184600F0CCF9FB681B689A69FB6886
:102ECC001B6842F008029A61FB681B689A69FB68F0
:102EDC001B6822F004029A61FB681B689969BB6845
:102EEC001A69FB681B680A439A6164E0FB681B68FB
:102EFC00B968184600F012FAFB681B689A69FB68FF
:102F0C001B6842F400629A61FB681B689A69FB6853
:102F1C001B6822F480629A61FB681B689969BB6824
:102F2C001B691A02FB681B680A439A6143E0FB6841
:102F3C001B68B968184600F05BFAFB681B68DA6915
:102F4C00FB681B6842F00802DA61FB681B68DA69EF
:102F5C00FB681B6822F00402DA61FB681B68D96904
:102F6C00BB681A69FB681B680A43DA6123E0FB68DB
:102F7C001B68B968184600F0A5FAFB681B68DA698B
:102F8C00FB681B6842F40062DA61FB681B68DA6953
:102F9C00FB681B6822F48062DA61FB681B68D969E4
:102FAC00BB681B691A02FB681B680A43DA6102E002
:102FBC000123FB7500BFFB68002283F83C20FB7DDE
:102FCC0018461837BD4680BD80B584B000AF786018
:102FDC0039600023FB737B6893F83C30012B01D1E3
:102FEC000223B4E07B68012283F83C207B68022238
:102FFC0083F83D207B681B689B68BB60BB6823F033
:10300C007703BB60BB6823F47F43BB607B681B68A2
:10301C00BA689A603B681B68B3F5005F3ED0B3F5A5
:10302C00005F00F28780B3F5805F00F08680B3F517
:10303C00805F7FD8702B1AD0702B7BD8602B50D030
:10304C00602B77D8502B3CD0502B73D8402B58D0BA
:10305C00402B6FD8302B64D0302B6BD8202B60D00A
:10306C00202B67D8002B5CD0102B5AD062E07B68E9
:10307C0018683B6899683B685A683B68DB6800F0E5
:10308C00E6FA7B681B689B68BB60BB6843F0770300
:10309C00BB607B681B68BA689A604FE07B681868F5
:1030AC003B6899683B685A683B68DB6800F0CFFA6C
:1030BC007B681B689A687B681B6842F480429A6044
:1030CC003CE07B6818683B6859683B68DB681A46CB
:1030DC0000F046FA7B681B685021184600F09DFAF8
:1030EC002CE07B6818683B6859683B68DB681A46BB
:1030FC0000F064FA7B681B686021184600F08DFABA
:10310C001CE07B6818683B6859683B68DB681A46AA
:10311C0000F026FA7B681B684021184600F07DFA07
:10312C000CE07B681A683B681B681946104600F077
:10313C0074FA03E00123FB7300E000BF7B680122FB
:10314C0083F83D207B68002283F83C20FB7B1846EB
:10315C001037BD4680BD80B483B000AF786000BF2F
:10316C000C37BD4680BC704780B483B000AF78602C
:10317C0000BF0C37BD4680BC704780B483B000AF35
:10318C00786000BF0C37BD4680BC704780B483B0FC
:10319C0000AF786000BF0C37BD4680BC70470000A4
:1031AC0080B485B000AF786039607B681B68FB60C9
:1031BC007B68254A934207D07B68B3F1804F03D0DC
:1031CC007B68224A934208D1FB6823F07003FB60B2
:1031DC003B685B68FA681343FB607B681A4A93424E
:1031EC0007D07B68B3F1804F03D07B68174A9342BA
:1031FC0008D1FB6823F44073FB603B68DB68FA681A
:10320C001343FB60FB6823F080023B685B6913434C
:10321C00FB607B68FA681A603B689A687B68DA62C4
:10322C003B681A687B689A627B68074A934203D1B1
:10323C003B681A697B681A637B6801225A6100BF7C
:10324C001437BD4680BC7047002C01400004004080
:10325C0080B487B000AF786039607B681B6A7B6193
:10326C007B681B6A23F001027B681A627B685B68CF
:10327C003B617B689B69FB60FB6823F07003FB6020
:10328C00FB6823F00303FB603B681B68FA6813437D
:10329C00FB607B6923F002037B613B689B687A6966
:1032AC0013437B617B681C4A93420CD17B6923F0EE
:1032BC0008037B613B68DB687A6913437B617B693C
:1032CC0023F004037B617B68134A934211D13B6961
:1032DC0023F480733B613B6923F400733B613B68CF
:1032EC005B693A6913433B613B689B693A691343D9
:1032FC003B617B683A695A607B68FA689A613B6803
:10330C005A687B685A637B687A691A6200BF1C37FB
:10331C00BD4680BC704700BF002C014080B487B014
:10332C0000AF786039607B681B6A7B617B681B6AC5
:10333C0023F010027B681A627B685B683B617B68D8
:10334C009B69FB60FB6823F4E043FB60FB6823F4A0
:10335C004073FB603B681B681B02FA681343FB60FD
:10336C007B6923F020037B613B689B681B017A69B6
:10337C0013437B617B681D4A93420DD17B6923F01B
:10338C0080037B613B68DB681B017A6913437B61BB
:10339C007B6923F040037B617B68144A934213D111
:1033AC003B6923F480633B613B6923F400633B611D
:1033BC003B685B699B003A6913433B613B689B69C3
:1033CC009B003A6913433B617B683A695A607B689E
:1033DC00FA689A613B685A687B689A637B687A6979
:1033EC001A6200BF1C37BD4680BC7047002C0140E0
:1033FC0080B487B000AF786039607B681B6A7B61F2
:10340C007B681B6A23F480727B681A627B685B683A
:10341C003B617B68DB69FB60FB6823F07003FB603E
:10342C00FB6823F00303FB603B681B68FA681343DB
:10343C00FB607B6923F400737B613B689B681B0218
:10344C007A6913437B617B681D4A93420DD17B697A
:10345C0023F400637B613B68DB681B027A691343CE
:10346C007B617B6923F480637B617B68144A9342A4
:10347C0013D13B6923F480533B613B6923F4005324
:10348C003B613B685B691B013A6913433B613B68D9
:10349C009B691B013A6913433B617B683A695A602B
:1034AC007B68FA68DA613B685A687B68DA637B6828
:1034BC007A691A6200BF1C37BD4680BC704700BFDA
:1034CC00002C014080B487B000AF786039607B6815
:1034DC001B6A3B617B681B6A23F480527B681A620F
:1034EC007B685B687B617B68DB69FB60FB6823F452
:1034FC00E043FB60FB6823F44073FB603B681B6894
:10350C001B02FA681343FB603B6923F400533B61D5
:10351C003B689B681B033A6913433B617B680F4A0A
:10352C00934209D17B6923F480437B613B685B69DF
:10353C009B017A6913437B617B687A695A607B686B
:10354C00FA68DA613B685A687B681A647B683A6986
:10355C001A6200BF1C37BD4680BC7047002C01406E
:10356C0080B487B000AFF860B9607A60FB681B6A02
:10357C007B61FB681B6A23F00102FB681A62FB6823
:10358C009B693B613B6923F0F0033B617B681B014A
:10359C003A6913433B617B6923F00A037B617A69C7
:1035AC00BB6813437B61FB683A699A61FB687A6973
:1035BC001A6200BF1C37BD4680BC704780B487B010
:1035CC0000AFF860B9607A60FB681B6A7B61FB68CE
:1035DC001B6A23F01002FB681A62FB689B693B6153
:1035EC003B6923F470433B617B681B033A691343CB
:1035FC003B617B6923F0A0037B61BB681B017A698B
:10360C0013437B61FB683A699A61FB687A691A62B9
:10361C0000BF1C37BD4680BC704780B485B000AF7E
:10362C00786039607B689B68FB60FB6823F07003F3
:10363C00FB603A68FB68134343F00703FB607B684D
:10364C00FA689A6000BF1437BD4680BC704780B4DE
:10365C0087B000AFF860B9607A603B60FB689B682C
:10366C007B617B6923F47F437B613B681A027B6837
:10367C001A43BB6813437A6913437B61FB687A690D
:10368C009A6000BF1C37BD4680BC704780B485B0C3
:10369C0000AF786039607B6893F83C30012B01D126
:1036AC00022341E07B68012283F83C207B680222E4
:1036BC0083F83D207B681B685B68FB607B681B683C
:1036CC009B68BB60FB6823F07003FB603B681B6866
:1036DC00FA681343FB607B681B68FA685A607B6866
:1036EC001B68144A934209D07B681B68B3F1804F66
:1036FC0004D07B681B68104A93420CD1BB6823F042
:10370C008003BB603B685B68BA681343BB607B6833
:10371C001B68BA689A607B68012283F83D207B683D
:10372C00002283F83C20002318461437BD4680BC89
:10373C00704700BF002C01400004004080B483B0EF
:10374C0000AF786000BF0C37BD4680BC704780B4BA
:10375C0083B000AF786000BF0C37BD4680BC7047AB
:10376C0080B582B000AF78607B68002B01D101235B
:10377C0042E07B6893F84130DBB2002B06D17B68CA
:10378C00002283F840207868FEF786F87B682422B4
:10379C0083F841207B681B68DA687B681B6822F41D
:1037AC000052DA60786800F071FD7B681B681A695A
:1037BC007B681B6822F490421A617B681B685A690B
:1037CC007B681B6822F02A025A617B681B68DA68E6
:1037DC007B681B6842F40052DA607B6800225A64F2
:1037EC007B68202283F841207B68202283F84220CA
:1037FC007B6800225A63002318460837BD4680BDFB
:10380C0080B58AB002AFF860B9603B601346FB80AC
:10381C0000237B61FB6893F84130DBB2202B6DD128
:10382C00BB68002B02D0FB88002B01D1012366E082
:10383C00FB6800225A64FB68212283F84120FEF7C2
:10384C0073F97861FB68FA889A84FB68FA88DA84E1
:10385C00FB689B68B3F5805F08D1FB681B69002B84
:10386C0004D10023FB61BB68BB6103E0BB68FB6157
:10387C000023BB612AE03B6800937B690022802116
:10388C00F86800F0F9FA0346002B01D0032336E068
:10389C00FB69002B0BD1BB691B881A46FB681B68A4
:1038AC00C2F308025A60BB690233BB6107E0FB69D3
:1038BC001A78FB681B685A60FB690133FB61FB6873
:1038CC00DB8C9BB2013B9AB2FB68DA84FB68DB8C25
:1038DC009BB2002BCFD13B6800937B690022402127
:1038EC00F86800F0C9FA0346002B01D0032306E068
:1038FC00FB68202283F84120002300E002231846B5
:10390C002037BD4680BD000080B5BAB000AF7860EE
:10391C007B681B681B68C7F8E4307B681B68DB6836
:10392C00C7F8E0307B681B685B69C7F8DC300023A4
:10393C00C7F8D8300023C7F8D430D7F8E43003F0F8
:10394C000F03C7F8D830D7F8D830002B0FD1D7F8E1
:10395C00E43003F02003002B09D0D7F8E03003F05B
:10396C002003002B03D0786800F0D1FB5BE2D7F882
:10397C00D830002B00F0DE80D7F8DC3003F00103E8
:10398C00002B06D1D7F8E03003F49073002B00F035
:10399C00D180D7F8E43003F00103002B0BD0D7F81B
:1039AC00E03003F48073002B05D07B685B6C43F034
:1039BC0001027B685A64D7F8E43003F00403002B4F
:1039CC000BD0D7F8DC3003F00103002B05D07B685B
:1039DC005B6C43F002027B685A64D7F8E43003F066
:1039EC000203002B0BD0D7F8DC3003F00103002BC3
:1039FC0005D07B685B6C43F004027B685A64D7F893
:103A0C00E43003F00803002B11D0D7F8E03003F0BA
:103A1C002003002B05D1D7F8DC3003F00103002B79
:103A2C0005D07B685B6C43F008027B685A647B684A
:103A3C005B6C002B00F0F281D7F8E43003F020032C
:103A4C00002B08D0D7F8E03003F02003002B02D075
:103A5C00786800F05CFB7B681B685B6903F04003D3
:103A6C00002B14BF01230023DBB2C7F8D4307B68D2
:103A7C005B6C03F00803002B03D1D7F8D430002B78
:103A8C004FD0786800F066FA7B681B685B6903F0BE
:103A9C004003002B41D07B681B681433C7F89C3063
:103AAC00D7F89C3053E8003FC7F89830D7F89830D7
:103ABC0023F04003C7F8D0307B681B681433D7F869
:103ACC00D020C7F8A820C7F8A430D7F8A410D7F88E
:103ADC00A82041E80023C7F8A030D7F8A030002B6D
:103AEC00D9D17B68DB6B002B13D07B68DB6B7E4AF8
:103AFC005A637B68DB6B1846FEF768F90346002BAC
:103B0C0016D07B68DB6B5B6B7A68D26B1046984780
:103B1C000EE0786800F09CF90AE0786800F098F9FB
:103B2C0006E0786800F094F97B6800225A6475E12D
:103B3C0000BF73E17B681B6B012B40F04F81D7F802
:103B4C00E43003F01003002B00F04881D7F8E0308C
:103B5C0003F01003002B00F041810023BB607B6855
:103B6C001B681B68BB607B681B685B68BB60BB68C1
:103B7C007B681B685B6903F04003002B00F0B68088
:103B8C007B68DB6B1B685B68A7F8BE30B7F8BE3090
:103B9C00002B00F045817B689B8DB7F8BE209A42C4
:103BAC0080F03E817B68B7F8BE20DA857B68DB6BE2
:103BBC009B69202B00F088807B681B680C33C7F84E
:103BCC008830D7F8883053E8003FC7F88430D7F8EE
:103BDC00843023F48073C7F8B8307B681B680C33CF
:103BEC00D7F8B820C7F89420C7F89030D7F89010C1
:103BFC00D7F8942041E80023C7F88C30D7F88C30E4
:103C0C00002BD9D17B681B6814337B677B6F53E81F
:103C1C00003F3B673B6F23F00103C7F8B4307B6870
:103C2C001B681433D7F8B420C7F88020FB67F96FF2
:103C3C00D7F8802041E80023BB67BB6F002BE1D194
:103C4C007B681B6814333B663B6E53E8003FFB6597
:103C5C00FB6D23F04003C7F8B0307B681B6814334E
:103C6C00D7F8B020FA66BB66B96EFA6E41E800234D
:103C7C007B667B6E002BE3D17B68202283F842208D
:103C8C007B6800221A637B681B680C33FB64FB6C3B
:103C9C0053E8003FBB64BB6C23F01003C7F8AC3097
:103CAC007B681B680C33D7F8AC20BA657B65796DE3
:103CBC00BA6D41E800233B653B6D002BE3D17B687B
:103CCC00DB6B1846FEF747F87B6802225A637B6869
:103CDC009A8D7B68DB8D9BB2D31A9BB219467868A0
:103CEC0000F0BFF89CE000BF254000087B689A8D6F
:103CFC007B68DB8D9BB2D31AA7F8CE307B68DB8D4B
:103D0C009BB2002B00F08E80B7F8CE30002B00F069
:103D1C0089807B681B680C33BB63BB6B53E8003F2B
:103D2C007B637B6B23F49073C7F8C8307B681B688C
:103D3C000C33D7F8C8207A643B64396C7A6C41E850
:103D4C000023FB63FB6B002BE3D17B681B681433F4
:103D5C007B627B6A53E8003F3B623B6A23F00103C2
:103D6C00C7F8C4307B681B681433D7F8C4203A6397
:103D7C00FB62F96A3A6B41E80023BB62BB6A002B19
:103D8C00E3D17B68202283F842207B6800221A63EF
:103D9C007B681B680C333B613B6953E8003FFB605D
:103DAC00FB6823F01003C7F8C0307B681B680C332A
:103DBC00D7F8C020FA61BB61B969FA6941E8002300
:103DCC007B617B69002BE3D17B6802225A63B7F8D5
:103DDC00CE301946786800F044F823E0D7F8E43088
:103DEC0003F08003002B09D0D7F8E03003F08003F8
:103DFC00002B03D0786800F023F914E0D7F8E430F6
:103E0C0003F04003002B0ED0D7F8E03003F0400352
:103E1C00002B08D0786800F062F904E000BF02E0E3
:103E2C0000BF00E000BFE837BD4680BD80B483B062
:103E3C0000AF786000BF0C37BD4680BC704780B4C3
:103E4C0083B000AF786000BF0C37BD4680BC7047B4
:103E5C0080B483B000AF786000BF0C37BD4680BC27
:103E6C00704780B483B000AF78600B467B8000BF96
:103E7C000C37BD4680BC704780B590B000AFF86081
:103E8C00B9603B601346FB7150E0BB6CB3F1FF3F74
:103E9C004CD0BB6C002B07D0FDF746FE02463B68AE
:103EAC00D31ABA6C9A4241D2FB681B680C33BB62C2
:103EBC00BB6A53E8003F7B627B6A23F4D073FB63DD
:103ECC00FB681B680C33FA6B7A633B63396B7A6B58
:103EDC0041E80023FB62FB6A002BE5D1FB681B6801
:103EEC0014337B617B6953E8003F3B613B6923F0F2
:103EFC000103BB63FB681B681433BA6B3A62FB614A
:103F0C00F9693A6A41E80023BB61BB69002BE5D132
:103F1C00FB68202283F84120FB68202283F8422092
:103F2C00FB68002283F8402003230FE0FB681B682A
:103F3C001A68BB681340BA689A420CBF012300236D
:103F4C00DBB21A46FB799A429FD0002318464037C1
:103F5C00BD4680BD80B495B000AF78607B681B68AF
:103F6C000C337B637B6B53E8003F3B633B6B23F46D
:103F7C009073FB647B681B680C33FA6C3A64FB63CC
:103F8C00F96B3A6C41E80023BB63BB6B002BE5D1AA
:103F9C007B681B6814333B623B6A53E8003FFB6150
:103FAC00FB6923F00103BB647B681B681433BA6C98
:103FBC00FA62BB62B96AFA6A41E800237B627B6AE7
:103FCC00002BE5D17B681B6B012B19D17B681B681F
:103FDC000C33FB60FB6853E8003FBB60BB6823F00D
:103FEC0010037B647B681B680C337A6CBA617B6151
:103FFC007969BA6941E800233B613B69002BE5D143
:10400C007B68202283F842207B6800221A6300BF61
:10401C005437BD4680BC704780B584B000AF786023
:10402C007B685B6AFB60FB680022DA85FB68002218
:10403C00DA84F868FFF70CFF00BF1037BD4680BD6F
:10404C0080B485B000AF78607B6893F84130DBB208
:10405C00212B3ED17B689B68B3F5805F14D17B68C4
:10406C001B69002B10D17B681B6AFB60FB681B88EB
:10407C001A467B681B68C2F308025A607B681B6A8D
:10408C009A1C7B681A6208E07B681B6A591C7A6868
:10409C0011621A787B681B685A607B68DB8C9BB258
:1040AC00013B9BB27A681946D184002B0FD17B68F7
:1040BC001B68DA687B681B6822F08002DA607B6818
:1040CC001B68DA687B681B6842F04002DA600023E8
:1040DC0000E0022318461437BD4680BC704780B5FB
:1040EC0082B000AF78607B681B68DA687B681B68FD
:1040FC0022F04002DA607B68202283F84120786845
:10410C00FFF794FE002318460837BD4680BD80B5E6
:10411C008CB000AF78607B6893F84230DBB2222B16
:10412C0040F0AE807B689B68B3F5805F17D17B68ED
:10413C001B69002B13D10023FB627B689B6ABB625B
:10414C007B681B685B689BB2C3F308039AB2BB6ABB
:10415C001A807B689B6A9A1C7B689A6226E07B6853
:10416C009B6AFB620023BB627B689B68B3F5805F34
:10417C0007D07B689B68002B0AD17B681B69002BDE
:10418C0006D17B681B685B68DAB2FB6A1A7008E0C0
:10419C007B681B685B68DBB203F07F03DAB2FB6AF7
:1041AC001A707B689B6A5A1C7B689A627B68DB8DF1
:1041BC009BB2013B9BB27A681946D185002B5DD12D
:1041CC007B681B68DA687B681B6822F02002DA6067
:1041DC007B681B68DA687B681B6822F48072DA6083
:1041EC007B681B685A697B681B6822F001025A6164
:1041FC007B68202283F842207B6800225A637B680C
:10420C001B6B012B35D17B6800221A637B681B6802
:10421C000C337B617B6953E8003F3B613B6923F0C6
:10422C0010037B627B681B680C337A6A3A62FB6111
:10423C00F9693A6A41E80023BB61BB69002BE5D1FF
:10424C007B681B681B6803F01003102B0AD100233A
:10425C00FB607B681B681B68FB607B681B685B688A
:10426C00FB60FB687B689B8D19467868FFF7F9FD4E
:10427C0002E07868FFF7E3FD002302E0002300E092
:10428C00022318463037BD4680BD000080B584B08F
:10429C0000AF78607B681B681B6923F440517B6816
:1042AC00DA687B681B680A431A617B689A687B68CA
:1042BC001B691A437B685B691343BB607B681B6893
:1042CC00DB6823F4B05323F00C037A681268B968E6
:1042DC000B43D3607B681B685B6923F440717B687C
:1042EC009A697B681B680A435A617B681B682C4A75
:1042FC00934203D1FEF780FBF86002E0FEF768FB07
:10430C00F860FA6813469B0013449A001A447B68C1
:10431C005B689B00B2FBF3F3224AA2FB03235B090D
:10432C001901FA6813469B0013449A001A447B68DF
:10433C005B689B00B2FBF3F21A4BA3FB02035B0915
:10434C00642000FB03F3D31A1B013233154AA2FB82
:10435C0003235B0903F0F0031944FA6813469B002E
:10436C0013449A001A447B685B689B00B2FBF3F21F
:10437C000C4BA3FB02035B09642000FB03F3D31A71
:10438C001B013233074AA2FB03235B0903F00F0224
:10439C007B681B680A449A6000BF1037BD4680BD1D
:1043AC00003801401F85EB51014B1868704700BF66
:1043BC006C00002070B500260C4D0D4C641BA41035
:1043CC00A64209D100F06CFC00260A4D0A4C641B75
:1043DC00A410A64205D170BD55F8043B9847013690
:1043EC00EEE755F8043B98470136F2E7684D0008B4
:1043FC00684D0008684D00086C4D0008024B0146E2
:10440C00186800F05FB800BF6C000020024B01463A
:10441C00186800F00BB800BF6C0000200346024483
:10442C00934200D1704703F8011BF9E738B50546F4
:10443C00002943D051F8043C0C1F002BB8BFE418E2
:10444C0000F0CAF81E4A1368104633B96360146052
:10445C002846BDE8384000F0C5B8A3420AD9216807
:10446C006218934201BF1A685B685218226063603D
:10447C000460EDE71A465B680BB1A342FAD91168E8
:10448C005018A0420BD1206801445018834211608F
:10449C00DED118685B68014411605360D8E702D91B
:1044AC000C232B60D4E7206821188B4201BF1968BC
:1044BC005B680918216063605460C9E738BD00BFB0
:1044CC0028010020F8B5CD1C25F0030508350C2D6E
:1044DC0038BF0C25002D064601DBA94203D90C235D
:1044EC0033600020F8BD00F077F821490A681446C3
:1044FC009CB9204F3B6823B92146304600F03CF86C
:10450C0038602946304600F037F8431C23D10C2381
:10451C003046336000F066F8E3E723685B1B17D482
:10452C000B2B03D923601C44256004E06368A24272
:10453C000CBF0B605360304600F054F804F10B00D4
:10454C00231D20F00700C21ACCD01B1AA350C9E7B8
:10455C0022466468CCE7C41C24F00304A042E3D0D8
:10456C00211A304600F008F80130DDD1CFE700BF4A
:10457C00280100202C01002038B50023054D0446ED
:10458C0008462B60FDF716FA431C02D12B6803B1C9
:10459C00236038BD100200200EB46FF0004100B54E
:1045AC009CB01DAB029006900791049108480949F4
:1045BC0053F8042B0591006802A9019300F074F8DC
:1045CC000022029B1A701CB05DF804EB03B070471C
:1045DC006C0000200802FFFF014800F0FBBA00BF8E
:1045EC0018020020014800F0F6BA00BF18020020A3
:1045FC002DE9F0478E6882469E420C4690461F4637
:10460C0038D88A8912F4906F32D025680969013341
:10461C00A5EB010965694B4405EB450505EBD57523
:10462C006D109D4238BF1D46530531D52946FFF705
:10463C0049FF064650B90C234FF0FF30CAF8003042
:10464C00A38943F04003A381BDE8F0874A46216962
:10465C0000F0D0FAA38923F4906343F08003A38184
:10466C0026614E4426603E466561A5EB0905A560B2
:10467C00BE4200D93E4632464146206800F0C8FA98
:10468C00A36822689B1B32440020A3602260DBE7F6
:10469C002A4600F0D7FA06460028E1D15046216997
:1046AC00FFF7C4FEC7E700002DE9F04F98468B8951
:1046BC0007461B060D4614469DB00ED50B6963B913
:1046CC004021FFF7FFFE2860286120B90C233B60D6
:1046DC004FF0FF30D1E040236B610023099320237E
:1046EC008DF8293030234FF00109CDF80C80DFF81C
:1046FC00A4818DF82A3023469A4613F8012B0AB16F
:10470C00252AF9D1BAEB040B0BD05B46224629467D
:10471C003846FFF76DFF013000F0AA80099A5A4421
:10472C0009929AF80030002B00F0A28000234FF081
:10473C00FF32CDE905230AF1010A049307938DF8A2
:10474C0053301A935446052214F8011B514800F0BB
:10475C0043FA049AD8B9D00644BF20238DF85330BD
:10476C00110744BF2B238DF853309AF800302A2BB5
:10477C0015D0544600204FF00A0C079A214611F828
:10478C00013B303B092B4ED9B0B1079214E0A0EBA2
:10479C00080309FA03F31343A2460493D2E7039BDD
:1047AC00191D1B680391002BBBBF5B4242F0020238
:1047BC0007930793B8BF049223782E2B0CD1637800
:1047CC002A2B35D1039B02341A1D1B680392002B34
:1047DC00B8BF4FF0FF330593DFF8C8A00322504653
:1047EC00217800F0F9F940B14023A0EB0A0003FA5C
:1047FC0000F0049B01340343049314F8011B0622BC
:10480C0025488DF8281000F0E7F9002838D0234B04
:10481C001BBB039B073323F0070308330393099B4C
:10482C003344099367E70C4601200CFB0232A5E7E1
:10483C0000234FF00A0C194601340593204610F85A
:10484C00012B303A092A03D9002BC5D00591C3E7B7
:10485C00044601230CFB0121F0E703AB00932A462D
:10486C0038460F4B04A9AFF30080421C0646D6D144
:10487C00AB895B063FF52CAF09981DB0BDE8F08FF6
:10488C0003AB00932A463846054B04A900F07CF88C
:10489C00EBE700BF324D00083C4D00080000000063
:1048AC00FD450008384D00082DE9F047164699469D
:1048BC008A680B6907469342B8BF1346336091F878
:1048CC0043200C46DDF820800AB1013333602368A5
:1048DC00990642BF336802333360256815F006052C
:1048EC0006D104F1190AE36832689B1AAB4228DC42
:1048FC0094F84320131E226818BF012392062DD46E
:10490C004946384604F14302C047013020D02368A1
:10491C00E56803F00603042B18BF002532684FF03E
:10492C000006A36808BFAD1A226908BF25EAE57521
:10493C009342C4BF9B1AED181A34B5421AD1002009
:10494C0008E00123524649463846C047013003D19E
:10495C004FF0FF30BDE8F0870135C4E73020E11897
:10496C0081F843005A1C94F845102244023382F813
:10497C004310C5E70123224649463846C04701305B
:10498C00E6D00136D9E700002DE9FF470C46277E1B
:10499C009146782F80469A460C9904F1430207D829
:1049AC00622F0AD8002F00F0D980582F00F0A48075
:1049BC0004F1420684F842703AE0A7F16303152B28
:1049CC00F6D801A050F823F02D4A0008414A0008FF
:1049DC00BD490008BD490008BD490008BD49000893
:1049EC00414A0008BD490008BD490008BD490008FE
:1049FC00BD4900084F4B0008714A0008314B0008B4
:104A0C00BD490008BD490008714B0008BD490008AC
:104A1C00714A0008BD490008BD490008394B00081F
:104A2C000B6804F142061A1D1B680A6084F84230B8
:104A3C000123A4E0256808682E0600F104030AD5BA
:104A4C0005680B60002D03DA2D236D4284F843308A
:104A5C000A235E4819E015F0400F05680B6018BF7B
:104A6C002DB2EFE70B682568181D0860280601D5E4
:104A7C001D6802E06906FBD51D886F2F0CBF08234B
:104A8C000A235248002184F843106668002EA8BF00
:104A9C002168A660A4BF21F0040121600DB9002E8D
:104AAC004DD01646B5FBF3F103FB1157C75D06F865
:104ABC00017D2F46BB420D46F4D9082B0BD1236840
:104ACC00DF0708D5236961689942DEBF302306F8F9
:104ADC00013C06F1FF36921B22614B4621464046B3
:104AEC00CDF800A003AAFFF7DFFE01304CD14FF048
:104AFC00FF3004B0BDE8F087344884F845700E6888
:104B0C00236856F8045B1F060E6014D5D90744BF02
:104B1C0043F0200323601DB9236823F02003236096
:104B2C001023AFE7236843F0200323607823284841
:104B3C0084F84530E3E75E0648BFADB2E6E71646BB
:104B4C00BBE70B6826681D1D60690D6035061B6888
:104B5C0001D5186002E07106FBD5188000231646BB
:104B6C002361BAE70B681A1D0A601E6800213046E3
:104B7C00626800F031F808B1801B606063682361E3
:104B8C00002384F84330A8E732464946404623695F
:104B9C00D0470130ABD023689B0713D4E068039B4C
:104BAC009842B8BF1846A4E701233246494640460E
:104BBC00D04701309BD00135E36803995B1AAB42B7
:104BCC00F2DCEBE7002504F11906F5E7434D00088C
:104BDC00544D000870477047034610B5C9B20244E3
:104BEC009342184601D1002003E0047801338C4233
:104BFC00F6D110BD0A44914200F1FF3300D1704749
:104C0C0010B511F8014B914203F8014FF9D110BDC9
:104C1C00884210B501EB020402D98442234607D81E
:104C2C00431EA14208D011F8012B03F8012FF8E71D
:104C3C00014602448A4200D110BD13F8014D02F81E
:104C4C00014DF7E7F8B5074614460E4621B9114653
:104C5C00BDE8F840FFF736BC22B9FFF7E7FB254665
:104C6C002846F8BD00F014F8A0420FD22146384671
:104C7C00FFF728FC05460028F2D031462246FFF704
:104C8C00B9FF31463846FFF7D1FBE9E73546E7E790
:104C9C0051F8043C181F002BBCBF0B58C0187047B0
:104CAC00F8B500BFF8BC08BC9E467047F8B500BF0D
:084CBC00F8BC08BC9E467047DD
:104CC400214D4F44453A2564230A000021375345BA
:104CD4004725643A2564230A000000002152454414
:104CE4003A2564230A00000021475245454E3A25DF
:104CF40064230A002159454C4C4F573A2564230A32
:104D04000000000000000000000000000102030495
:104D14000607080900000000010203040203040559
:104D2400060708090A0B0C0D0E0F10100102232DA3
:104D3400302B2000686C4C006566674546470030A0
:104D440031323334353637383941424344454600ED
:104D540030313233343536373839616263646566ED
:044D6400000000004B
:044D6800310100080D
:044D6C000D0100082D
:104D7000010000000100000001000000010000002F
:104D8000010000000100000001000000010000001F
:104D9000010000000100000001000000010000000F
:104DA00001000000010000000100000001000000FF
:104DB000C800000001000000020000000300000025
:104DC00004000000050000000300000002000000D5
:104DD0000024F4001000000001000000700000201A
:104DE00000000000000000000000000000000000C3
:104DF00000000000000000000000000000000000B3
:104E000000000000000000000000000000000000A2
:104E10000000000000000000000000000000000092
:104E20000000000000000000000000000000000082
:104E30000000000000000000000000000000000072
:0400000508001A399C
:00000001FF
