:020000040800F2
:100000000028002081140008A5130008AB13000885
:10001000B1130008B7130008BD130008000000006A
:10002000000000000000000000000000C3130008F2
:10003000CF13000800000000DB130008E7130008DE
:10004000C9140008C9140008C9140008C91400081C
:10005000C9140008C9140008C9140008C91400080C
:10006000C9140008C9140008C9140008C9140008FC
:10007000C9140008C9140008C9140008C9140008EC
:10008000C9140008C9140008C9140008C9140008DC
:10009000C9140008C9140008C9140008C9140008CC
:1000A000C9140008C9140008C9140008C9140008BC
:1000B000F5130008C914000800000000C914000866
:1000C000C91400080000000000000000C914000866
:1000D00000000000C9140008C91400080000000056
:1000E000C9140008C9140008C91400080000000061
:1000F0000000000000000000000000000000000000
:0C01000000000000000000005FF808F1A3
:10010C0010B5054C237833B9044B13B10448AFF345
:10011C0000800123237010BDD000002000000000DF
:10012C00C42C000808B5034B1BB103490348AFF3BB
:10013C00008008BD00000000D4000020C42C000882
:10014C0080B500AF5D4B1B682C2B35D02C2B00F3EE
:10015C00AC802A2B02D02B2B5BD0A6E0584B1B6813
:10016C00012B04D1192001F057F800F057FD00F0D5
:10017C0039FB0346012B0CD100F0F2FD514B1B68EF
:10018C000133504A13604F4B1B680121184600F095
:10019C007FFD00F045FB0346012B40F0888000F00A
:1001AC00DFFD464B22221A60192001F035F802219E
:1001BC00002000F06DFD7AE0414B1B68012B04D14F
:1001CC00192001F029F800F03BFD00F00BFB034671
:1001DC00012B0CD100F0C4FD3B4B1B6801333A4A98
:1001EC001360394B1B680221184600F051FD00F0DA
:1001FC0017FB0346012B5CD100F0B2FD2F4B2122E3
:10020C001A60192001F008F80321002000F040FDCD
:10021C004FE02B4B1B68012B04D1192000F0FCFF85
:10022C0000F028FD00F0DEFA0346012B0CD100F0A3
:10023C0097FD264B1B680133244A1360234B1B6824
:10024C000321184600F024FD00F0EAFA0346012BC6
:10025C0031D11E4B1A681C4B1B681A44194B1B6876
:10026C009A4203D1154B15221A6024E0174B1A68D9
:10027C00154B1B681A44134B1B689A420ADA114B34
:10028C001A68114B1B68D31A104A13600B4B1522BA
:10029C001A6010E00D4B1A680B4B1B681344094A8B
:1002AC001360064B15221A6005E000BF04E000BF86
:1002BC0002E000BF00E000BF00BF80BD00010020D5
:1002CC0020010020540000205C0000205800002079
:1002DC0080B500AF6C4B1B681F3B032B00F2CB802F
:1002EC0001A252F823F000BF050300081F03000809
:1002FC00E50300088303000800F032FD624B202266
:10030C001A60192000F088FF0121002000F0C0FCC9
:10031C00B8E05E4B1B68012B04D1192000F07CFF68
:10032C0000F07CFC00F040FA0346012B0BD100F0EE
:10033C0017FD554B22221A60192000F06DFF022187
:10034C00002000F0A5FC00F04DFA0346012B40F014
:10035C00948000F005FD4C4B2A221A60192000F005
:10036C005BFF4B4B01221A60494B1B68012118465D
:10037C0000F08EFC81E0454B1B68012B04D1192049
:10038C0000F04AFF00F05CFC00F00EFA0346012B73
:10039C000BD100F0E5FC3C4B21221A60192000F037
:1003AC003BFF0321002000F073FC00F01BFA034616
:1003BC00012B64D100F0D4FC334B2C221A60192091
:1003CC0000F02AFF334B01221A60324B1B680221CA
:1003DC00184600F05DFC52E02C4B1B68012B04D13D
:1003EC00192000F019FF00F045FC00F0DDF9034680
:1003FC00012B2CD100F0B4FC274B1A68254B1B6841
:10040C001A44234B1B689A4203D11F4B15221A60C6
:10041C001DE0214B1A681F4B1B681A441C4B1B68B0
:10042C009A420ADA1A4B1A681A4B1B68D31A1A4AE0
:10043C001360154B15221A6009E0174B1A68154BFF
:10044C001B681344124A13600F4B15221A6000F0FC
:10045C00C9F90346012B14D100F082FC0A4B2B2264
:10046C001A600D4B01221A600B4B1B6803211846B6
:10047C0000F00EFC05E000BF04E000BF02E000BF8E
:10048C0000E000BF00BF80BD000100202001002063
:10049C00540000205C0000205800002080B500AF04
:1004AC00774B1B68153B042B00F2DE8001A252F83F
:1004BC0023F000BFD5040008FB0400085B0500080E
:1004CC00B90500081706000800F04AFC6C4B162210
:1004DC001A606C4B1B68184600F074FE6A4B1B6864
:1004EC00684A12681146184600F0D2FBC5E000F0CD
:1004FC00EDFA00F037FB654B1B68012B04D100F0C3
:10050C0003FC642000F074FE614B1B68012B0FD1BF
:10051C005B4B17221A605F4B1B68184600F052FEAB
:10052C005C4B1B685B4A12681146184600F0B0FB26
:10053C0000F03AF90346012B40F09880504B1F22F3
:10054C001A6000220021544800F076FD8EE000F085
:10055C00BDFA00F017FB4D4B1B68012B04D100F0CA
:10056C00D3FB642000F044FE494B1B68012B0FD1D8
:10057C00434B18221A60434B1B68184600F022FEAE
:10058C00404B1B68404A12681146184600F080FB2D
:10059C0000F00AF90346012B6AD1394B1F221A606D
:1005AC00002200213C4800F047FD61E000F0A2FA77
:1005BC0000F0C8FA354B1B68012B04D100F0A4FBEA
:1005CC00642000F015FE324B1B68012B0FD12C4B15
:1005DC0019221A602F4B1B68184600F0F3FD2D4BA7
:1005EC001B682C4A12681146184600F051FB00F0AB
:1005FC00DBF80346012B3DD1214B1F221A60002250
:10060C000021254800F018FD34E000F087FA00F0D6
:10061C0099FA1E4B1B68012B04D100F075FB64206A
:10062C0000F0E6FD1A4B1B68012B0FD1144B162260
:10063C001A60144B1B68184600F0C4FD124B1B6863
:10064C00104A12681146184600F022FB00F0ACF874
:10065C000346012B10D10A4B1F221A6000220021E5
:10066C000D4800F0E9FC07E000BF06E000BF04E025
:10067C0000BF02E000BF00E000BF00BF80BD00BFB4
:10068C000001002058000020540000201C01002014
:10069C00140100205C000020DD02000880B400AFD3
:1006AC00074B1A68074B1B681A44074B1B6813440B
:1006BC005B00064A136000BFBD4680BC704700BF9C
:1006CC0054000020580000205C000020EC000020AA
:1006DC0080B400AF064B1B68002B04DD044B1B6879
:1006EC00013B034A136000BFBD4680BC704700BF8E
:1006FC00EC00002080B500AF294B1B68153B042B88
:10070C004BD801A252F823F0290700082F07000844
:10071C004D0700086B0700088907000800F020FB54
:10072C003CE000F09BF80346002B03D11D4B1B68EB
:10073C00002B02DD00F036FA30E000F05BFA2DE021
:10074C0000F08CF80346002B03D1164B1B68002BD2
:10075C0002DD00F027FA21E000F04CFA1EE000F078
:10076C007DF80346002B03D10E4B1B68002B02DDDA
:10077C0000F02CFA12E000F03DFA0FE000F06EF8F9
:10078C000346002B03D1074B1B68002B02DD00F046
:10079C001DFA03E000F02EFA00E000BF00BF80BDA0
:1007AC0000010020EC00002080B400AF064B1B6859
:1007BC00012B04D1044B00221A60012300E000231A
:1007CC001846BD4680BC7047F000002080B400AFD6
:1007DC00034B01221A6000BFBD4680BC704700BFAE
:1007EC00F000002080B400AF064B1B68012B04D135
:1007FC00044B00221A60012300E000231846BD467A
:10080C0080BC7047F400002080B400AF034B012281
:10081C001A6000BFBD4680BC704700BFF4000020CA
:10082C0080B400AF064B1B68012B04D1044B002293
:10083C001A60012300E000231846BD4680BC7047B7
:10084C00F800002080B400AF034B01221A6000BFF7
:10085C00BD4680BC704700BFF800002080B500AFDB
:10086C00064B1B68012B06D1044B00221A60FFF7C4
:10087C0015FF012300E00023184680BDFC0000207A
:10088C0080B400AF034B01221A6000BFBD4680BC90
:10089C00704700BFFC00002080B500AF784B1B6890
:1008AC00784A1360784B1B68754A136002217748AD
:1008BC0001F0F0F803461A46734B1A60714B1A6834
:1008CC006F4B1B689A4225D16D4B1A686E4B1B6897
:1008DC009A421FD16E4B1A686B4B1B689A420DD013
:1008EC00694B1B686A4A1360674B1B68002B11D15C
:1008FC00FFF76CFF674BC8221A600BE0654B1B6857
:10090C00013B644A1360634B1B68002B02D1604BA4
:10091C0001221A60604B1B68604A1360604B1B68B5
:10092C005D4A13601021594801F0B4F803461A4689
:10093C005B4B1A60594B1A68574B1B689A4225D16E
:10094C00554B1A68564B1B689A421FD1554B1A6867
:10095C00534B1B689A420DD0514B1B68514A136084
:10096C004F4B1B68002B11D1FFF74EFF494BC82290
:10097C001A600BE0474B1B68013B464A1360454B22
:10098C001B68002B02D1474B01221A60464B1B6897
:10099C00464A1360464B1B68434A13600121454885
:1009AC0001F078F803461A46414B1A603F4B1A681F
:1009BC003D4B1B689A4225D13B4B1A683C4B1B683C
:1009CC009A421FD13A4B1A683B4B1B689A420DD086
:1009DC00374B1B68384A1360354B1B68002B11D101
:1009EC00FFF730FF2B4BC8221A600BE0294B1B681A
:1009FC00013B284A1360274B1B68002B02D12E4B5E
:100A0C0001221A602D4B1B682D4A13602D4B1B685D
:100A1C002A4A136001211D4801F03CF803461A468E
:100A2C00284B1A60264B1A68244B1B689A4225D116
:100A3C00224B1A68234B1B689A421FD1214B1A6810
:100A4C00214B1B689A420DD01E4B1B681E4A13602B
:100A5C001C4B1B68002B11D1FFF712FF0D4BC8224A
:100A6C001A600BE00B4B1B68013B0A4A1360094BE5
:100A7C001B68002B02D1144B01221A6000BF80BDF1
:100A8C0004000020000000200800002000080140A5
:100A9C000C0000204000002014000020100000205A
:100AAC00180000201C000020240000202000002042
:100ABC0028000020000C01402C00002034000020F5
:100ACC0030000020380000203C00002080B500AF32
:100ADC0000224FF48061054800F0F3FF0122082149
:100AEC00034800F0EEFF00BF80BD00BF00080140CE
:100AFC00000C014080B500AF01224FF48061054825
:100B0C0000F0DFFF00220821034800F0DAFF00BFED
:100B1C0080BD00BF00080140000C014080B500AF53
:100B2C0000224FF48061054800F0CBFF0022082121
:100B3C00034800F0C6FF00BF80BD00BF00080140A5
:100B4C00000C014080B500AF00221021044800F0D9
:100B5C00B8FF01222021024800F0B3FF00BF80BD86
:100B6C00000C014080B500AF01221021044800F0B8
:100B7C00A8FF00222021024800F0A3FF00BF80BD87
:100B8C00000C014080B500AF00221021044800F099
:100B9C0098FF00222021024800F093FF00BF80BD87
:100BAC00000C014080B500AF00224FF48061054875
:100BBC0000F087FF01224FF48071034800F081FFA1
:100BCC0000BF80BD000C01400008014080B500AFA3
:100BDC0001224FF48061054800F073FF00224FF4AE
:100BEC008071034800F06DFF00BF80BD000C014018
:100BFC000008014080B500AF01224FF48061054828
:100C0C0000F05FFF01224FF48071034800F059FFA0
:100C1C0000BF80BD000C01400008014080B500AF52
:100C2C004FF48061044800F064FF1021034800F089
:100C3C0060FF00BF80BD00BF00080140000C0140F8
:100C4C0080B500AF4FF48061084800F052FF0821D6
:100C5C00074800F04EFF1021054800F04AFF202104
:100C6C00034800F046FF00BF80BD00BF00080140F4
:100C7C00000C014080B500AF0821044800F039FF9A
:100C8C002021024800F035FF00BF80BD000C014060
:100C9C0080B483B000AF786039607B68184A82FBFF
:100CAC0003129210DB17D31A164A13607968144B8F
:100CBC0083FB01239A10CB17D21A13469B001344C3
:100CCC005B00CA1A0F4B5A603B680D4A82FB031239
:100CDC009210DB17D31A0B4A93603968084B83FBCD
:100CEC0001239A10CB17D21A13469B0013445B00B6
:100CFC00CA1A044BDA6000BF0C37BD4680BC704783
:100D0C00676666664400002080B400AF134B5B68D6
:100D1C00002B08DC114B1B68013B104A13600F4B76
:100D2C0009225A6004E00D4B5B68013B0B4A53608F
:100D3C000A4BDB68002B08DC084B9B68013B074A1D
:100D4C009360064B0922DA6004E0044BDB68013B3C
:100D5C00024AD36000BFBD4680BC704744000020EF
:100D6C0080B500AF01224FF487610F4800F0A9FE57
:100D7C0001224FF4A0610D4800F0A3FE0C4B0022A1
:100D8C001A600C4B00221A600B4B00221A600B4BA2
:100D9C0000221A60FFF708FDFFF724FDFFF740FD66
:100DAC00FFF75CFD00BF80BD000C01400008014056
:100DBC0014010020180100201C010020200100203B
:100DCC0080B500AF00F07CFB00F030F800F0B6F816
:100DDC0000F068F8104801F0D1FA104B15221A6097
:100DEC000A2200210E4800F027F90A2200210D48A2
:100DFC0000F022F94FF47A7200210B4800F01CF934
:100E0C00FFF74CFBFFF764FAFFF79AF9FFF772FC58
:100E1C0000F0A4F9F4E700BF30010020000100202D
:100E2C004D120008A5080008DD06000880B590B03A
:100E3C0000AF07F1180328220021184601F070FEBC
:100E4C003B1D00221A605A609A60DA601A61022314
:100E5C00BB610123BB621023FB6200237B6307F1A0
:100E6C001803184600F05EFE0346002B01D000F07C
:100E7C00DDF80F237B600023BB600023FB600023A5
:100E8C003B6100237B613B1D0021184601F0CAF831
:100E9C000346002B01D000F0C9F800BF4037BD4617
:100EAC0080BD000080B586B000AF07F108030022BA
:100EBC001A605A609A60DA603B4600221A605A60E7
:100ECC001D4B4FF080421A601B4B41F63F725A602B
:100EDC00194B00229A60184B0922DA60164B00223B
:100EEC001A61154B00229A61134801F0F7F9034679
:100EFC00002B01D000F09AF84FF48053BB6007F13F
:100F0C00080319460C4801F08DFB0346002B01D059
:100F1C0000F08CF800233B6000237B603B461946B5
:100F2C00054801F059FD0346002B01D000F07EF876
:100F3C0000BF1837BD4680BD3001002080B586B09B
:100F4C0000AF07F1080300221A605A609A60DA6059
:100F5C002E4B9B692D4A43F0040393612B4B9B69E9
:100F6C0003F004037B607B68284B9B69274A43F0A2
:100F7C0008039361254B9B6903F008033B603B68B6
:100F8C0000224FF48761224800F09BFD00224FF4B1
:100F9C00A061204800F095FD1323BB600023FB608B
:100FAC0001233B6107F1080319461A4800F0F8FBCE
:100FBC000123BB600023FB6001233B6107F10803A5
:100FCC001946134800F0ECFB4FF48763BB60012318
:100FDC00FB6000233B6102237B6107F10803194688
:100FEC000B4800F0DDFB4FF4A063BB600123FB60FA
:100FFC0000233B6102237B6107F108031946054876
:10100C0000F0CEFB00BF1837BD4680BD001002407B
:10101C00000C01400008014080B582B000AF786040
:10102C0000F074F800BF0837BD4680BD80B400AF37
:10103C0072B600BFFEE7000080B586B000AF7860E6
:10104C000B467B8013463B800C2001F059FD034678
:10105C00FB60FB687A681A607B882A4A82FB031261
:10106C009210DB17D31A9AB2FB689A80FB683A8805
:10107C00DA80FB6800229A60234B1B68002B03D19B
:10108C00214AFB68136039E01F4B1B687B611E4BC8
:10109C001B683B610CE0FB689A883B699B88D31A00
:1010AC009AB2FB689A803B697B613B699B683B61A8
:1010BC003B69002B05D0FB689A883B699B889A4258
:1010CC00E9D27A693B699A4206D07B69FA689A60E0
:1010DC00FB683A699A6005E0FB683A699A600A4ACB
:1010EC00FB6813603B69002B07D03B699A88FB684F
:1010FC009B88D31A9AB23B699A8000BF1837BD46B9
:10110C0080BD00BF676666667801002080B400AFC2
:10111C00094B1B68002B0BD0074B1B689B88002BC3
:10112C0007D0054B1B689A88013A92B29A8000E06E
:10113C0000BFBD4680BC70477801002080B582B0EE
:10114C0000AF78607B68002B03D0786801F0E0FC7E
:10115C0000E000BF0837BD4680BD000080B582B0FE
:10116C0000AF174B1B68002B24D0154B1B689B88BA
:10117C00002B21D1124B1B681B689847104B1B6826
:10118C007B600F4B1B689B680D4A13607B680022C9
:10119C009A607B68DB88002B08D07B6818687B68BA
:1011AC00D9887B68DB881A46FFF746FF7868FFF71B
:1011BC00C5FF02E000BF00E000BF0837BD4680BDA0
:1011CC007801002080B483B000AF78607B68642223
:1011DC0002FB03F3044A1360044B00221A6000BFA5
:1011EC000C37BD4680BC7047040100201401002060
:1011FC0080B483B000AF7860054A7B681360054B00
:10120C0000221A6000BF0C37BD4680BC704700BF7F
:10121C000C0100201C01002080B483B000AF78606A
:10122C00054A7B681360054B00221A6000BF0C371F
:10123C00BD4680BC704700BF10010020200100207B
:10124C0080B400AF214B1B68002B0BDD1F4B1B68C0
:10125C00013B1E4A13601D4B1B68002B02DC1C4B10
:10126C0001221A601B4B1B68002B0BDD194B1B68F2
:10127C00013B184A1360174B1B68002B02DC164B02
:10128C0001221A60154B1B68002B0BDD134B1B68DE
:10129C00013B124A1360114B1B68002B02DC104BF4
:1012AC0001221A600F4B1B68002B0BDD0D4B1B68CA
:1012BC00013B0C4A13600B4B1B68002B02DC0A4BE6
:1012CC0001221A6000BFBD4680BC7047040100209B
:1012DC001401002008010020180100200C0100203E
:1012EC001C010020100100202001002080B485B0DA
:1012FC0000AF154B9B69144A43F001039361124BE9
:10130C009B6903F00103BB60BB680F4BDB690E4AA2
:10131C0043F08053D3610C4BDB6903F080537B604B
:10132C007B680A4B5B68FB60FB6823F0E063FB6047
:10133C00FB6843F08063FB60044AFB68536000BFAA
:10134C001437BD4680BC70470010024000000140BD
:10135C0080B584B000AF78607B681B68B3F1804FB8
:10136C0013D10C4BDB690B4A43F00103D361094BDE
:10137C00DB6903F00103FB60FB68002200211C20E9
:10138C0000F0D7F91C2000F0F0F900BF1037BD4673
:10139C0080BD00BF0010024080B400AFFEE780B4F7
:1013AC0000AFFEE780B400AFFEE780B400AFFEE70D
:1013BC0080B400AFFEE780B400AF00BFBD4680BC78
:1013CC00704780B400AF00BFBD4680BC704780B48E
:1013DC0000AF00BFBD4680BC704780B500AF00F0C9
:1013EC00B5F800BF80BD000080B500AF024801F029
:1013FC0011F800BF80BD00BF3001002080B586B061
:10140C0000AF7860144A154BD31A7B617B693B6142
:10141C00134B1B68002B02D1114B124A1A60104B54
:10142C001A687B6813443A699A4207D201F03EFB72
:10143C0003460C221A604FF0FF3309E0084B1B687F
:10144C00FB60074B1A687B681344054A1360FB6802
:10145C0018461837BD4680BD002800200004000047
:10146C00240100209001002080B400AF00BFBD46D5
:10147C0080BC7047FFF7F8FF0B480C490C4A00235F
:10148C0002E0D458C4500433C4188C42F9D3094A2E
:10149C00094C002301E013600432A242FBD301F09B
:1014AC000BFBFFF78DFC704700000020D0000020E4
:1014BC00082D0008D000002090010020FEE700005D
:1014CC0080B500AF084B1B68074A43F0100313604C
:1014DC00032000F023F90F2000F008F8FFF706FFB7
:1014EC000023184680BD00BF0020024080B582B0AA
:1014FC0000AF7860124B1A68124B1B7819464FF4E8
:10150C007A73B3FBF1F3B2FBF3F3184600F03BF93B
:10151C000346002B01D001230EE07B680F2B0AD869
:10152C00002279684FF0FF3000F003F9064A7B681F
:10153C001360002300E0012318460837BD4680BD28
:10154C0060000020680000206400002080B400AF20
:10155C00054B1B781A46054B1B681344034A136052
:10156C0000BFBD4680BC7047680000207C01002095
:10157C0080B400AF024B1B681846BD4680BC704758
:10158C007C01002080B485B000AF78607B6803F0EC
:10159C000703FB600C4BDB68BB60BA684FF6FF03BC
:1015AC001340BB60FB681A02BB68134343F0BF6374
:1015BC0043F40033BB60044ABB68D36000BF1437EC
:1015CC00BD4680BC704700BF00ED00E080B400AFAA
:1015DC00044BDB681B0A03F007031846BD4680BCAE
:1015EC00704700BF00ED00E080B483B000AF03464D
:1015FC00FB7197F90730002B0BDBFB7903F01F0213
:10160C00064997F907305B09012000FA02F241F80C
:10161C00232000BF0C37BD4680BC704700E100E0C2
:10162C0080B483B000AF03463960FB7197F9073083
:10163C00002B0ADB3B68DAB20C4997F90730120130
:10164C00D2B20B4483F800230AE03B68DAB20849B3
:10165C00FB7903F00F03043B1201D2B20B441A7650
:10166C0000BF0C37BD4680BC704700BF00E100E0F6
:10167C0000ED00E080B489B000AFF860B9607A602A
:10168C00FB6803F00703FB61FB69C3F10703042B41
:10169C0028BF0423BB61FB690433062B02D9FB6909
:1016AC00033B00E000237B614FF0FF32BB6902FA81
:1016BC0003F3DA43BB681A407B699A404FF0FF3161
:1016CC007B6901FA03F3D9437B680B40134318463B
:1016DC002437BD4680BC704780B582B000AF7860BF
:1016EC007B68013BB3F1807F01D301230FE00A4AF1
:1016FC007B68013B53600F214FF0FF30FFF790FFE9
:10170C00054B00229A60044B07221A6000231846EE
:10171C000837BD4680BD00BF10E000E080B582B048
:10172C0000AF78607868FFF72DFF00BF0837BD4623
:10173C0080BD80B586B000AF0346B9607A60FB739C
:10174C0000237B61FFF742FF78617A68B96878699A
:10175C00FFF790FF024697F90F3011461846FFF736
:10176C005FFF00BF1837BD4680BD80B582B000AFAB
:10177C000346FB7197F907301846FFF735FF00BF9A
:10178C000837BD4680BD80B582B000AF7860786800
:10179C00FFF7A2FF034618460837BD4680BD000080
:1017AC0080B48BB000AF7860396000237B6200237B
:1017BC003B6248E101227B6A02FA03F3FB613B685E
:1017CC001B68FA691340BB61BA69FB699A4240F025
:1017DC0037813B685B68A34A93425ED0A14A93422F
:1017EC0075D8A14A934258D09F4A93426FD89F4ACA
:1017FC00934252D09D4A934269D89D4A93424CD011
:10180C009B4A934263D89B4A934246D0994A93424F
:10181C005DD8122B2AD8122B59D801A252F823F0DA
:10182C00A71800088118000893180008D51800089C
:10183C00DB180008DB180008DB180008DB180008B0
:10184C00DB180008DB180008DB180008DB180008A0
:10185C00DB180008DB180008DB180008DB18000890
:10186C00DB180008891800089D180008824A93426A
:10187C0013D02CE03B68DB683B6229E03B68DB68FB
:10188C0004333B6224E03B68DB6808333B621FE0B7
:10189C003B68DB680C333B621AE03B689B68002BAF
:1018AC0002D104233B6213E03B689B68012B05D1FA
:1018BC0008233B627B68FA691A6109E008233B62E2
:1018CC007B68FA695A6103E000233B6200E000BFC9
:1018DC00BB69FF2B01D87B6801E07B6804337B611B
:1018EC00BB69FF2B02D87B6A9B0002E07B6A083B3A
:1018FC009B003B617B691A680F213B6901FA03F37A
:10190C00DB431A40396A3B6901FA03F31A437B69DA
:10191C001A603B685B6803F08053002B00F09080EA
:10192C00564B9B69554A43F001039361534B9B699A
:10193C0003F00103BB60BB68514A7B6A9B0802330E
:10194C0052F82330FB607B6A03F003039B000F22E9
:10195C0002FA03F3DB43FA681340FB607B68494AE5
:10196C0093420DD07B68484A934207D07B68474A24
:10197C00934201D1022304E0032302E0012300E09F
:10198C0000237A6A02F0030292009340FA68134330
:10199C00FB603B497B6A9B080233FA6841F82320C1
:1019AC003B685B6803F48013002B06D0384B9A68B5
:1019BC003749BB6913438B6006E0354B9A68BB69AA
:1019CC00DB43334913408B603B685B6803F40013C3
:1019DC00002B06D02E4BDA682D49BB691343CB6024
:1019EC0006E02B4BDA68BB69DB4329491340CB601B
:1019FC003B685B6803F40033002B06D0244B5A6819
:101A0C002349BB6913434B6006E0214B5A68BB6901
:101A1C00DB431F4913404B603B685B6803F4803326
:101A2C00002B06D01A4B1A681949BB6913430B607B
:101A3C0006E0174B1A68BB69DB43154913400B6072
:101A4C007B6A01337B623B681A687B6A22FA03F378
:101A5C00002B7FF4AFAE00BF00BF2C37BD4680BC5F
:101A6C00704700BF0000321000003110000022103F
:101A7C000000211000001210000011100010024094
:101A8C000000014000080140000C01400010014022
:101A9C000004014080B485B000AF78600B467B80B9
:101AAC007B689A687B881340002B02D00123FB7360
:101ABC0001E00023FB73FB7B18461437BD4680BC4A
:101ACC00704780B483B000AF78600B467B801346C0
:101ADC007B707B78002B03D07A887B681A6103E0DB
:101AEC007B881A047B681A6100BF0C37BD4680BC2A
:101AFC00704780B485B000AF78600B467B807B6804
:101B0C00DB68FB607A88FB6813401A04FB68D943D6
:101B1C007B880B401A437B681A6100BF1437BD46A3
:101B2C0080BC704780B586B000AF78607B68002BB6
:101B3C0001D101236CE27B681B6803F00103002BCD
:101B4C0000F08780924B5B6803F00C03042B0CD0E5
:101B5C008F4B5B6803F00C03082B12D18C4B5B682A
:101B6C0003F48033B3F5803F0BD1894B1B6803F42E
:101B7C000033002B6CD07B685B68002B68D1012391
:101B8C0046E27B685B68B3F5803F06D1804B1B68EF
:101B9C007F4A43F4803313602EE07B685B68002B34
:101BAC000CD17B4B1B687A4A23F480331360784B3F
:101BBC001B68774A23F4802313601DE07B685B6805
:101BCC00B3F5A02F0CD1724B1B68714A43F48023E0
:101BDC0013606F4B1B686E4A43F4803313600BE049
:101BEC006B4B1B686A4A23F480331360684B1B6889
:101BFC00674A23F4802313607B685B68002B13D047
:101C0C00FFF7B6FC386108E0FFF7B2FC02463B690F
:101C1C00D31A642B01D90323FAE15D4B1B6803F43F
:101C2C000033002BF0D014E0FFF7A2FC386108E081
:101C3C00FFF79EFC02463B69D31A642B01D90323A0
:101C4C00E6E1534B1B6803F40033002BF0D100E0AA
:101C5C0000BF7B681B6803F00203002B63D04C4B66
:101C6C005B6803F00C03002B0BD0494B5B6803F053
:101C7C000C03082B1CD1464B5B6803F48033002B00
:101C8C0016D1434B1B6803F00203002B05D07B6875
:101C9C001B69012B01D00123BAE13D4B1B6823F0DA
:101CAC00F8027B685B69DB00394913430B603AE04F
:101CBC007B681B69002B20D0364B01221A60FFF782
:101CCC0057FC386108E0FFF753FC02463B69D31A16
:101CDC00022B01D903239BE12D4B1B6803F002035C
:101CEC00002BF0D02A4B1B6823F0F8027B685B6951
:101CFC00DB00274913430B6015E0264B00221A60CA
:101D0C00FFF736FC386108E0FFF732FC02463B690E
:101D1C00D31A022B01D903237AE11D4B1B6803F064
:101D2C000203002BF0D17B681B6803F00803002B27
:101D3C003AD07B689B69002B19D0174B01221A6093
:101D4C00FFF716FC386108E0FFF712FC02463B690E
:101D5C00D31A022B01D903235AE10D4B5B6A03F012
:101D6C000203002BF0D0012000F09AFA1CE00A4B81
:101D7C0000221A60FFF7FCFB38610FE0FFF7F8FB5D
:101D8C0002463B69D31A022B08D9032340E100BF5A
:101D9C000010024000004242800442429E4B5B6AAB
:101DAC0003F00203002BE9D17B681B6803F00403EA
:101DBC00002B00F0A6800023FB75974BDB6903F02A
:101DCC008053002B0DD1944BDB69934A43F0805325
:101DDC00D361914BDB6903F08053BB60BB6801237B
:101DEC00FB758E4B1B6803F48073002B18D18B4B47
:101DFC001B688A4A43F480731360FFF7B9FB3861A0
:101E0C0008E0FFF7B5FB02463B69D31A642B01D9F6
:101E1C000323FDE0814B1B6803F48073002BF0D08F
:101E2C007B68DB68012B06D17B4B1B6A7A4A43F03B
:101E3C00010313622DE07B68DB68002B0CD1764B21
:101E4C001B6A754A23F001031362734B1B6A724AB7
:101E5C0023F0040313621CE07B68DB68052B0CD1B8
:101E6C006D4B1B6A6C4A43F0040313626A4B1B6A8A
:101E7C00694A43F0010313620BE0674B1B6A664A25
:101E8C0023F001031362644B1B6A634A23F00403BF
:101E9C0013627B68DB68002B15D0FFF769FB386198
:101EAC000AE0FFF765FB02463B69D31A41F2883220
:101EBC00934201D90323ABE0574B1B6A03F0020397
:101ECC00002BEED014E0FFF753FB38610AE0FFF76C
:101EDC004FFB02463B69D31A41F28832934201D937
:101EEC00032395E04C4B1B6A03F00203002BEED14D
:101EFC00FB7D012B05D1484BDB69474A23F080530E
:101F0C00D3617B68DB69002B00F08180424B5B68FE
:101F1C0003F00C03082B61D07B68DB69022B46D1E4
:101F2C003F4B00221A60FFF723FB386108E0FFF7F4
:101F3C001FFB02463B69D31A022B01D9032367E02E
:101F4C00354B1B6803F00073002BF0D17B681B6AC8
:101F5C00B3F5803F08D1304B5B6823F400327B68CB
:101F6C009B682D4913434B602B4B5B6823F4741215
:101F7C007B68196A7B685B6A0B43274913434B6088
:101F8C00274B01221A60FFF7F3FA386108E0FFF7DC
:101F9C00EFFA02463B69D31A022B01D9032337E02F
:101FAC001D4B1B6803F00073002BF0D02FE01C4B73
:101FBC0000221A60FFF7DCFA386108E0FFF7D8FA64
:101FCC0002463B69D31A022B01D9032320E0124BA2
:101FDC001B6803F00073002BF0D118E07B68DB6901
:101FEC00012B01D1012313E00B4B5B68FB60FB68F9
:101FFC0003F480327B681B6A9A4206D1FB6803F4B7
:10200C0070127B685B6A9A4201D0012300E00023C6
:10201C0018461837BD4680BD0010024000700040C5
:10202C006000424280B584B000AF786039607B6854
:10203C00002B01D10123D0E06A4B1B6803F007038E
:10204C003A689A4210D9674B1B6823F0070265491E
:10205C003B6813430B60634B1B6803F007033A6840
:10206C009A4201D00123B8E07B681B6803F002039D
:10207C00002B20D07B681B6803F00403002B05D0D9
:10208C00594B5B68584A43F4E06353607B681B68A8
:10209C0003F00803002B05D0534B5B68524A43F402
:1020AC0060535360504B5B6823F0F0027B689B6875
:1020BC004D4913434B607B681B6803F00103002BF5
:1020CC0040D07B685B68012B07D1474B1B6803F43E
:1020DC000033002B15D101237FE07B685B68022B5A
:1020EC0007D1414B1B6803F00073002B09D101236E
:1020FC0073E03D4B1B6803F00203002B01D101235D
:10210C006BE0394B5B6823F003027B685B683649F4
:10211C0013434B60FFF72CFAF8600AE0FFF728FA3C
:10212C000246FB68D31A41F28832934201D9032349
:10213C0053E02D4B5B6803F00C027B685B689B00E3
:10214C009A42EBD1274B1B6803F007033A689A427B
:10215C0010D2244B1B6823F0070222493B6813431F
:10216C000B60204B1B6803F007033A689A4201D0BE
:10217C00012332E07B681B6803F00403002B08D0BA
:10218C00194B5B6823F4E0627B68DB6816491343E8
:10219C004B607B681B6803F00803002B09D0124BC3
:1021AC005B6823F460527B681B69DB000E491343A8
:1021BC004B6000F021F802460B4B5B681B0903F0E7
:1021CC000F030A49CB5C22FA03F3094A1360094B4B
:1021DC001B681846FFF78AF9002318461037BD46CE
:1021EC0080BD00BF0020024000100240DC2C000823
:1021FC00600000206400002080B487B000AF002392
:10220C00FB600023BB6000237B6100237B60002309
:10221C003B611E4B5B68FB60FB6803F00C03042BFB
:10222C0002D0082B03D027E0194B3B6127E0FB6859
:10223C009B0C03F00F03174AD35C7B60FB6803F421
:10224C008033002B10D0114B5B685B0C03F0010347
:10225C00114AD35CBB607B680D4A02FB03F2BB687E
:10226C00B2FBF3F37B6104E07B680C4A02FB03F3E3
:10227C007B617B693B6102E0054B3B6100BF3B69C5
:10228C0018461C37BD4680BC704700BF001002408A
:10229C0000127A00EC2C0008FC2C000800093D0010
:1022AC0080B485B000AF78600A4B1B680A4AA2FB69
:1022BC0003235B0A7A6802FB03F3FB6000BFFB6835
:1022CC005A1EFA60002BF9D100BF00BF1437BD466F
:1022DC0080BC704760000020D34D621080B582B086
:1022EC0000AF78607B68002B01D1012341E07B6853
:1022FC0093F83D30DBB2002B06D17B68002283F8CB
:10230C003C207868FFF724F87B68022283F83D2094
:10231C007B681A687B6804331946104600F06EFA25
:10232C007B68012283F846207B68012283F83E20DB
:10233C007B68012283F83F207B68012283F84020D0
:10234C007B68012283F841207B68012283F84220BC
:10235C007B68012283F843207B68012283F84420A8
:10236C007B68012283F845207B68012283F83D209D
:10237C00002318460837BD4680BD000080B485B0E8
:10238C0000AF78607B6893F83D30DBB2012B01D055
:10239C00012335E07B68022283F83D207B681B68B3
:1023AC00DA687B681B6842F00102DA607B681B68A4
:1023BC00164A934209D07B681B68B3F1804F04D056
:1023CC007B681B68124A934211D17B681B689B681F
:1023DC0003F00703FB60FB68062B10D07B681B68BF
:1023EC001A687B681B6842F001021A6007E07B6880
:1023FC001B681A687B681B6842F001021A60002394
:10240C0018461437BD4680BC704700BF002C0140F5
:10241C000004004080B582B000AF78607B681B6818
:10242C001B6903F00203022B22D17B681B68DB685B
:10243C0003F00203022B1BD17B681B686FF00202B6
:10244C001A617B6801221A777B681B689B6903F011
:10245C000303002B03D0786800F0B4F905E078682A
:10246C0000F0A7F9786800F0B6F97B6800221A77BB
:10247C007B681B681B6903F00403042B22D17B6867
:10248C001B68DB6803F00403042B1BD17B681B68FF
:10249C006FF004021A617B6802221A777B681B6852
:1024AC009B6903F44073002B03D0786800F08AF921
:1024BC0005E0786800F07DF9786800F08CF97B68AD
:1024CC0000221A777B681B681B6903F00803082B32
:1024DC0022D17B681B68DB6803F00803082B1BD137
:1024EC007B681B686FF008021A617B6804221A77FC
:1024FC007B681B68DB6903F00303002B03D078684F
:10250C0000F060F905E0786800F053F9786800F0A5
:10251C0062F97B6800221A777B681B681B6903F0E1
:10252C001003102B22D17B681B68DB6803F01003AF
:10253C00102B1BD17B681B686FF010021A617B6833
:10254C0008221A777B681B68DB6903F44073002B45
:10255C0003D0786800F036F905E0786800F029F9C6
:10256C00786800F038F97B6800221A777B681B6862
:10257C001B6903F00103012B0ED17B681B68DB6820
:10258C0003F00103012B07D17B681B686FF001027C
:10259C001A617868FEF740FD7B681B681B6903F0C5
:1025AC008003802B0ED17B681B68DB6803F08003F3
:1025BC00802B07D17B681B686FF080021A617868EA
:1025CC0000F06BFA7B681B681B6903F04003402B1F
:1025DC000ED17B681B68DB6803F04003402B07D1EE
:1025EC007B681B686FF040021A61786800F0FCF899
:1025FC007B681B681B6903F02003202B0ED17B68C2
:10260C001B68DB6803F02003202B07D17B681B6859
:10261C006FF020021A61786800F036FA00BF0837B4
:10262C00BD4680BD80B584B000AF786039600023B2
:10263C00FB737B6893F83C30012B01D10223B4E08F
:10264C007B68012283F83C207B68022283F83D20C2
:10265C007B681B689B68BB60BB6823F07703BB601F
:10266C00BB6823F47F43BB607B681B68BA689A60C5
:10267C003B681B68B3F5005F3ED0B3F5005F00F21A
:10268C008780B3F5805F00F08680B3F5805F7FD8DC
:10269C00702B1AD0702B7BD8602B50D0602B77D836
:1026AC00502B3CD0502B73D8402B58D0402B6FD88C
:1026BC00302B64D0302B6BD8202B60D0202B67D8DC
:1026CC00002B5CD0102B5AD062E07B6818683B68FA
:1026DC0099683B685A683B68DB6800F05EF97B6878
:1026EC001B689B68BB60BB6843F07703BB607B686F
:1026FC001B68BA689A604FE07B6818683B689968F9
:10270C003B685A683B68DB6800F047F97B681B68DC
:10271C009A687B681B6842F480429A603CE07B6854
:10272C0018683B6859683B68DB681A4600F0BEF8CD
:10273C007B681B685021184600F015F92CE07B686B
:10274C0018683B6859683B68DB681A4600F0DCF88F
:10275C007B681B686021184600F005F91CE07B685B
:10276C0018683B6859683B68DB681A4600F09EF8AD
:10277C007B681B684021184600F0F5F80CE07B687C
:10278C001A683B681B681946104600F0ECF803E029
:10279C000123FB7300E000BF7B68012283F83D201E
:1027AC007B68002283F83C20FB7B18461037BD4623
:1027BC0080BD80B483B000AF786000BF0C37BD46DD
:1027CC0080BC704780B483B000AF786000BF0C371A
:1027DC00BD4680BC704780B483B000AF786000BF4A
:1027EC000C37BD4680BC704780B483B000AF7860B6
:1027FC0000BF0C37BD4680BC7047000080B485B06C
:10280C0000AF786039607B681B68FB607B68254A89
:10281C00934207D07B68B3F1804F03D07B68224A88
:10282C00934208D1FB6823F07003FB603B685B6844
:10283C00FA681343FB607B681A4A934207D07B68A3
:10284C00B3F1804F03D07B68174A934208D1FB68E1
:10285C0023F44073FB603B68DB68FA681343FB604E
:10286C00FB6823F080023B685B691343FB607B6869
:10287C00FA681A603B689A687B68DA623B681A6887
:10288C007B689A627B68074A934203D13B681A695A
:10289C007B681A637B6801225A6100BF1437BD46FE
:1028AC0080BC7047002C01400004004080B487B00D
:1028BC0000AFF860B9607A60FB681B6A7B61FB68EB
:1028CC001B6A23F00102FB681A62FB689B693B617F
:1028DC003B6923F0F0033B617B681B013A691343AE
:1028EC003B617B6923F00A037B617A69BB68134304
:1028FC007B61FB683A699A61FB687A691A6200BF6E
:10290C001C37BD4680BC704780B487B000AFF86000
:10291C00B9607A60FB681B6A7B61FB681B6A23F0F9
:10292C001002FB681A62FB689B693B613B6923F4EC
:10293C0070433B617B681B033A6913433B617B69C2
:10294C0023F0A0037B61BB681B017A6913437B6195
:10295C00FB683A699A61FB687A691A6200BF1C3796
:10296C00BD4680BC704780B485B000AF78603960DC
:10297C007B689B68FB60FB6823F07003FB603A6824
:10298C00FB68134343F00703FB607B68FA689A60AB
:10299C0000BF1437BD4680BC704780B487B000AF11
:1029AC00F860B9607A603B60FB689B687B617B690F
:1029BC0023F47F437B613B681A027B681A43BB6834
:1029CC0013437A6913437B61FB687A699A6000BF91
:1029DC001C37BD4680BC704780B485B000AF7860B2
:1029EC0039607B6893F83C30012B01D1022341E024
:1029FC007B68012283F83C207B68022283F83D200F
:102A0C007B681B685B68FB607B681B689B68BB60B2
:102A1C00FB6823F07003FB603B681B68FA68134388
:102A2C00FB607B681B68FA685A607B681B68144AF9
:102A3C00934209D07B681B68B3F1804F04D07B684C
:102A4C001B68104A93420CD1BB6823F08003BB6017
:102A5C003B685B68BA681343BB607B681B68BA68E9
:102A6C009A607B68012283F83D207B68002283F802
:102A7C003C20002318461437BD4680BC704700BF6D
:102A8C00002C01400004004080B483B000AF78609B
:102A9C0000BF0C37BD4680BC704780B483B000AF1C
:102AAC00786000BF0C37BD4680BC7047014B18687E
:102ABC00704700BF6C00002070B500260C4D0D4C0B
:102ACC00641BA410A64209D100F0F6F800260A4DAA
:102ADC000A4C641BA410A64205D170BD55F8043BEA
:102AEC0098470136EEE755F8043B98470136F2E774
:102AFC00002D0008002D0008002D0008042D0008F2
:102B0C00024B0146186800F05FB800BF6C00002053
:102B1C00024B0146186800F00BB800BF6C00002097
:102B2C0003460244934200D1704703F8011BF9E7B6
:102B3C0038B50546002943D051F8043C0C1F002B36
:102B4C00B8BFE41800F0AAF81E4A1368104633B94F
:102B5C00636014602846BDE8384000F0A5B8A34275
:102B6C000AD921686218934201BF1A685B6852182F
:102B7C00226063600460EDE71A465B680BB1A34208
:102B8C00FAD911685018A0420BD120680144501892
:102B9C0083421160DED118685B6801441160536098
:102BAC00D8E702D90C232B60D4E7206821188B427C
:102BBC0001BF19685B680918216063605460C9E73C
:102BCC0038BD00BF28010020F8B5CD1C25F0030549
:102BDC0008350C2D38BF0C25002D064601DBA9420B
:102BEC0003D90C2333600020F8BD00F057F82149BD
:102BFC000A6814469CB9204F3B6823B921463046DD
:102C0C0000F03CF838602946304600F037F8431C99
:102C1C0023D10C233046336000F046F8E3E72368F9
:102C2C005B1B17D40B2B03D923601C44256004E0D9
:102C3C006368A2420CBF0B605360304600F034F85E
:102C4C0004F10B00231D20F00700C21ACCD01B1A74
:102C5C00A350C9E722466468CCE7C41C24F00304E3
:102C6C00A042E3D0211A304600F008F80130DDD143
:102C7C00CFE700BF280100202C01002038B500232D
:102C8C00054D044608462B60FEF7B8FB431C02D1E9
:102C9C002B6803B1236038BD80010020014800F08F
:102CAC0009B800BF88010020014800F004B800BF3B
:102CBC008801002070477047F8B500BFF8BC08BC0D
:102CCC009E467047F8B500BFF8BC08BC9E467047DE
:102CDC0000000000000000000102030406070809C0
:102CEC0002030405060708090A0B0C0D0E0F101041
:042CFC0001020000D1
:042D00003101000895
:042D04000D010008B5
:102D080001000000010000000100000001000000B7
:102D180001000000010000000100000001000000A7
:102D28000100000001000000010000000100000097
:102D38000100000001000000010000000100000087
:102D4800C8000000010000000200000003000000AD
:102D5800040000000500000003000000020000005D
:102D68000024F400100000000100000070000020A2
:102D7800000000000000000000000000000000004B
:102D8800000000000000000000000000000000003B
:102D9800000000000000000000000000000000002B
:102DA800000000000000000000000000000000001B
:102DB800000000000000000000000000000000000B
:102DC80000000000000000000000000000000000FB
:04000005080014815A
:00000001FF
